{
  "contractName": "EtherTrackDataStore",
  "abi": [
    {
      "constant": true,
      "inputs": [],
      "name": "getOwnerAddress",
      "outputs": [
        {
          "name": "",
          "type": "address"
        }
      ],
      "payable": false,
      "stateMutability": "view",
      "type": "function"
    },
    {
      "constant": false,
      "inputs": [
        {
          "name": "newOwner",
          "type": "address"
        }
      ],
      "name": "delegateOwnership",
      "outputs": [],
      "payable": false,
      "stateMutability": "nonpayable",
      "type": "function"
    },
    {
      "inputs": [
        {
          "name": "target",
          "type": "address"
        }
      ],
      "payable": false,
      "stateMutability": "nonpayable",
      "type": "constructor"
    },
    {
      "constant": true,
      "inputs": [
        {
          "name": "node",
          "type": "address"
        }
      ],
      "name": "getNamebyNode",
      "outputs": [
        {
          "name": "",
          "type": "uint64"
        }
      ],
      "payable": false,
      "stateMutability": "view",
      "type": "function"
    },
    {
      "constant": true,
      "inputs": [
        {
          "name": "name",
          "type": "uint64"
        }
      ],
      "name": "getNodebyName",
      "outputs": [
        {
          "name": "",
          "type": "address"
        }
      ],
      "payable": false,
      "stateMutability": "view",
      "type": "function"
    },
    {
      "constant": false,
      "inputs": [
        {
          "name": "node",
          "type": "address"
        },
        {
          "name": "name",
          "type": "uint64"
        }
      ],
      "name": "setNamebyNode",
      "outputs": [
        {
          "name": "",
          "type": "uint64"
        }
      ],
      "payable": false,
      "stateMutability": "nonpayable",
      "type": "function"
    }
  ],
  "bytecode": "0x6060604052341561000f57600080fd5b60405160208061073783398101604052808051906020019091905050336000806101000a81548173ffffffffffffffffffffffffffffffffffffffff021916908373ffffffffffffffffffffffffffffffffffffffff160217905550600073ffffffffffffffffffffffffffffffffffffffff168173ffffffffffffffffffffffffffffffffffffffff161415156100be576100bd816100c46401000000000261049f176401000000009004565b5b50610162565b6000809054906101000a900473ffffffffffffffffffffffffffffffffffffffff1673ffffffffffffffffffffffffffffffffffffffff163373ffffffffffffffffffffffffffffffffffffffff1614151561011f57600080fd5b806000806101000a81548173ffffffffffffffffffffffffffffffffffffffff021916908373ffffffffffffffffffffffffffffffffffffffff16021790555050565b6105c6806101716000396000f30060606040526004361061006d576000357c0100000000000000000000000000000000000000000000000000000000900463ffffffff1680630c4f65bd146100725780639142108d146100c7578063a4ebef301461013b578063bb1c2edc146101a8578063f9e97143146101e1575b600080fd5b341561007d57600080fd5b610085610242565b604051808273ffffffffffffffffffffffffffffffffffffffff1673ffffffffffffffffffffffffffffffffffffffff16815260200191505060405180910390f35b34156100d257600080fd5b610111600480803573ffffffffffffffffffffffffffffffffffffffff1690602001909190803567ffffffffffffffff1690602001909190505061026b565b604051808267ffffffffffffffff1667ffffffffffffffff16815260200191505060405180910390f35b341561014657600080fd5b610166600480803567ffffffffffffffff1690602001909190505061044e565b604051808273ffffffffffffffffffffffffffffffffffffffff1673ffffffffffffffffffffffffffffffffffffffff16815260200191505060405180910390f35b34156101b357600080fd5b6101df600480803573ffffffffffffffffffffffffffffffffffffffff1690602001909190505061049f565b005b34156101ec57600080fd5b610218600480803573ffffffffffffffffffffffffffffffffffffffff1690602001909190505061053d565b604051808267ffffffffffffffff1667ffffffffffffffff16815260200191505060405180910390f35b60008060009054906101000a900473ffffffffffffffffffffffffffffffffffffffff16905090565b60008060009054906101000a900473ffffffffffffffffffffffffffffffffffffffff1673ffffffffffffffffffffffffffffffffffffffff163373ffffffffffffffffffffffffffffffffffffffff161415156102c857600080fd5b600260008473ffffffffffffffffffffffffffffffffffffffff1673ffffffffffffffffffffffffffffffffffffffff16815260200190815260200160002060009054906101000a900460ff1615151561032157600080fd5b81600160008573ffffffffffffffffffffffffffffffffffffffff1673ffffffffffffffffffffffffffffffffffffffff16815260200190815260200160002060006101000a81548167ffffffffffffffff021916908367ffffffffffffffff16021790555082600360008467ffffffffffffffff1667ffffffffffffffff16815260200190815260200160002060006101000a81548173ffffffffffffffffffffffffffffffffffffffff021916908373ffffffffffffffffffffffffffffffffffffffff1602179055506001600260008573ffffffffffffffffffffffffffffffffffffffff1673ffffffffffffffffffffffffffffffffffffffff16815260200190815260200160002060006101000a81548160ff02191690831515021790555081905092915050565b6000600360008367ffffffffffffffff1667ffffffffffffffff16815260200190815260200160002060009054906101000a900473ffffffffffffffffffffffffffffffffffffffff169050919050565b6000809054906101000a900473ffffffffffffffffffffffffffffffffffffffff1673ffffffffffffffffffffffffffffffffffffffff163373ffffffffffffffffffffffffffffffffffffffff161415156104fa57600080fd5b806000806101000a81548173ffffffffffffffffffffffffffffffffffffffff021916908373ffffffffffffffffffffffffffffffffffffffff16021790555050565b6000600160008373ffffffffffffffffffffffffffffffffffffffff1673ffffffffffffffffffffffffffffffffffffffff16815260200190815260200160002060009054906101000a900467ffffffffffffffff1690509190505600a165627a7a723058203454da4631a48532093dbe9acbcfb2d9b79ce248945271e7ff167cb1f1d9792c0029",
  "source": "pragma solidity ^0.4.19;\n\n/// Owned contract as defined in Solidity documentation\ncontract owned\n{\n    function owned() public { owner = msg.sender; }\n    function delegateOwnership(address newOwner) public onlyOwner { owner = newOwner; } \n    function getOwnerAddress() view public returns(address) { return owner; }\n    address owner;\n    \n        modifier onlyOwner {\n        require(msg.sender == owner);\n        _;\n    }\n}\n\n/// Mortal contract as defined in Solidity documentation\ncontract mortal is owned {\n    function kill() internal onlyOwner {\n        selfdestruct(owner);\n    }\n}\n/// Storage contract\ncontract EtherTrackDataStore is owned, mortal {\n    \n    /// Hash table that pair address with public name\n    mapping(address => uint64) private nameByNode;\n    mapping(address => bool) private registeredByNode;\n    mapping(uint64 => address) private nodeByName;    \n    \n    function EtherTrackDataStore(address target) public { \n\tif(target != address(0))\n\t{\n\t\tdelegateOwnership(target);\n\t}\n    }\n    \n    function getNamebyNode (address node) external view returns (uint64) {\n        return nameByNode[node];\n    }\n    \n    function getNodebyName (uint64 name) external view returns (address) {\n        return nodeByName[name];\n    }\n    \n    function setNamebyNode (address node, uint64 name) external onlyOwner returns (uint64) {\n        require(!registeredByNode[node]);\n        nameByNode[node] = name;\n        nodeByName[name] = node;\n        registeredByNode[node] = true;\n\treturn name;\n    }\n}\n",
  "sourcePath": "/home/sunpaz/EtherTrack/Truffle-project/contracts/EtherTrackDataStore.sol",
  "compiler": {
    "name": "solc",
    "version": "0.4.19+commit.c4cbbb05.Emscripten.clang"
  },
  "schemaVersion": "2.0.0",
  "updatedAt": "2019-05-14T19:01:08.551Z"
}