{
  "contractName": "EtherTrackNS",
  "abi": [
    {
      "constant": false,
      "inputs": [
        {
          "name": "newOwner",
          "type": "address"
        }
      ],
      "name": "delegateOwnership",
      "outputs": [],
      "payable": false,
      "stateMutability": "nonpayable",
      "type": "function"
    },
    {
      "inputs": [
        {
          "name": "parent",
          "type": "address"
        },
        {
          "name": "dataStore",
          "type": "address"
        }
      ],
      "payable": false,
      "stateMutability": "nonpayable",
      "type": "constructor"
    },
    {
      "payable": true,
      "stateMutability": "payable",
      "type": "fallback"
    },
    {
      "anonymous": false,
      "inputs": [
        {
          "indexed": false,
          "name": "owner",
          "type": "address"
        },
        {
          "indexed": false,
          "name": "GS1_GLN",
          "type": "uint64"
        }
      ],
      "name": "updateEntries",
      "type": "event"
    },
    {
      "constant": false,
      "inputs": [],
      "name": "createDataStore",
      "outputs": [
        {
          "name": "",
          "type": "address"
        }
      ],
      "payable": false,
      "stateMutability": "nonpayable",
      "type": "function"
    },
    {
      "constant": true,
      "inputs": [],
      "name": "getDataStoreAddress",
      "outputs": [
        {
          "name": "",
          "type": "address"
        }
      ],
      "payable": false,
      "stateMutability": "view",
      "type": "function"
    },
    {
      "constant": false,
      "inputs": [
        {
          "name": "dataStore",
          "type": "address"
        }
      ],
      "name": "setDataStoreAddress",
      "outputs": [],
      "payable": false,
      "stateMutability": "nonpayable",
      "type": "function"
    },
    {
      "constant": true,
      "inputs": [],
      "name": "getParentAddress",
      "outputs": [
        {
          "name": "",
          "type": "address"
        }
      ],
      "payable": false,
      "stateMutability": "view",
      "type": "function"
    },
    {
      "constant": false,
      "inputs": [
        {
          "name": "parent",
          "type": "address"
        }
      ],
      "name": "setParentAddress",
      "outputs": [],
      "payable": false,
      "stateMutability": "nonpayable",
      "type": "function"
    },
    {
      "constant": true,
      "inputs": [
        {
          "name": "node",
          "type": "address"
        }
      ],
      "name": "getNameByNodeAddress",
      "outputs": [
        {
          "name": "_name",
          "type": "uint64"
        }
      ],
      "payable": false,
      "stateMutability": "view",
      "type": "function"
    },
    {
      "constant": true,
      "inputs": [
        {
          "name": "GS1_GLN",
          "type": "uint64"
        }
      ],
      "name": "getNodeAddressByName",
      "outputs": [
        {
          "name": "_node",
          "type": "address"
        }
      ],
      "payable": false,
      "stateMutability": "view",
      "type": "function"
    },
    {
      "constant": true,
      "inputs": [
        {
          "name": "node",
          "type": "address"
        }
      ],
      "name": "exists",
      "outputs": [
        {
          "name": "exists",
          "type": "bool"
        }
      ],
      "payable": false,
      "stateMutability": "view",
      "type": "function"
    },
    {
      "constant": false,
      "inputs": [
        {
          "name": "node",
          "type": "address"
        },
        {
          "name": "GS1_GLN",
          "type": "uint64"
        }
      ],
      "name": "registerName",
      "outputs": [],
      "payable": true,
      "stateMutability": "payable",
      "type": "function"
    }
  ],
  "bytecode": "0x6060604052341561000f57600080fd5b604051604080611a6a83398101604052808051906020019091908051906020019091905050336000806101000a81548173ffffffffffffffffffffffffffffffffffffffff021916908373ffffffffffffffffffffffffffffffffffffffff16021790555081600160006101000a81548173ffffffffffffffffffffffffffffffffffffffff021916908373ffffffffffffffffffffffffffffffffffffffff16021790555080600260006101000a81548173ffffffffffffffffffffffffffffffffffffffff021916908373ffffffffffffffffffffffffffffffffffffffff1602179055505050611963806101076000396000f3006060604052600436106100a4576000357c0100000000000000000000000000000000000000000000000000000000900463ffffffff1680632b45dd5f146100a6578063393b81bc146100e7578063542c21b1146101545780635f53667b1461018d57806391fa0555146101e2578063a9f5df4a14610237578063bb1c2edc14610298578063f2df601c146102d1578063f6a3d24e14610326578063fa5afe4014610377575b005b6100e5600480803573ffffffffffffffffffffffffffffffffffffffff1690602001909190803567ffffffffffffffff169060200190919050506103b0565b005b34156100f257600080fd5b610112600480803567ffffffffffffffff16906020019091905050610424565b604051808273ffffffffffffffffffffffffffffffffffffffff1673ffffffffffffffffffffffffffffffffffffffff16815260200191505060405180910390f35b341561015f57600080fd5b61018b600480803573ffffffffffffffffffffffffffffffffffffffff16906020019091905050610653565b005b341561019857600080fd5b6101a06106f2565b604051808273ffffffffffffffffffffffffffffffffffffffff1673ffffffffffffffffffffffffffffffffffffffff16815260200191505060405180910390f35b34156101ed57600080fd5b6101f561071c565b604051808273ffffffffffffffffffffffffffffffffffffffff1673ffffffffffffffffffffffffffffffffffffffff16815260200191505060405180910390f35b341561024257600080fd5b61026e600480803573ffffffffffffffffffffffffffffffffffffffff16906020019091905050610746565b604051808267ffffffffffffffff1667ffffffffffffffff16815260200191505060405180910390f35b34156102a357600080fd5b6102cf600480803573ffffffffffffffffffffffffffffffffffffffff169060200190919050506109e0565b005b34156102dc57600080fd5b6102e4610a7e565b604051808273ffffffffffffffffffffffffffffffffffffffff1673ffffffffffffffffffffffffffffffffffffffff16815260200191505060405180910390f35b341561033157600080fd5b61035d600480803573ffffffffffffffffffffffffffffffffffffffff16906020019091905050610b62565b604051808215151515815260200191505060405180910390f35b341561038257600080fd5b6103ae600480803573ffffffffffffffffffffffffffffffffffffffff16906020019091905050610e01565b005b600073ffffffffffffffffffffffffffffffffffffffff168273ffffffffffffffffffffffffffffffffffffffff161415610415576104106000809054906101000a900473ffffffffffffffffffffffffffffffffffffffff1682610ea0565b610420565b61041f8282610ea0565b5b5050565b6000600260009054906101000a900473ffffffffffffffffffffffffffffffffffffffff1673ffffffffffffffffffffffffffffffffffffffff1663a4ebef30836000604051602001526040518263ffffffff167c0100000000000000000000000000000000000000000000000000000000028152600401808267ffffffffffffffff1667ffffffffffffffff168152602001915050602060405180830381600087803b15156104d357600080fd5b6102c65a03f115156104e457600080fd5b505050604051805190509050600073ffffffffffffffffffffffffffffffffffffffff16600160009054906101000a900473ffffffffffffffffffffffffffffffffffffffff1673ffffffffffffffffffffffffffffffffffffffff161415801561057b5750600073ffffffffffffffffffffffffffffffffffffffff168173ffffffffffffffffffffffffffffffffffffffff16145b1561064b57600160009054906101000a900473ffffffffffffffffffffffffffffffffffffffff1673ffffffffffffffffffffffffffffffffffffffff1663393b81bc836000604051602001526040518263ffffffff167c0100000000000000000000000000000000000000000000000000000000028152600401808267ffffffffffffffff1667ffffffffffffffff168152602001915050602060405180830381600087803b151561062d57600080fd5b6102c65a03f1151561063e57600080fd5b5050506040518051905090505b809050919050565b6000809054906101000a900473ffffffffffffffffffffffffffffffffffffffff1673ffffffffffffffffffffffffffffffffffffffff163373ffffffffffffffffffffffffffffffffffffffff161415156106ae57600080fd5b80600260006101000a81548173ffffffffffffffffffffffffffffffffffffffff021916908373ffffffffffffffffffffffffffffffffffffffff16021790555050565b6000600260009054906101000a900473ffffffffffffffffffffffffffffffffffffffff16905090565b6000600160009054906101000a900473ffffffffffffffffffffffffffffffffffffffff16905090565b60008073ffffffffffffffffffffffffffffffffffffffff16600260009054906101000a900473ffffffffffffffffffffffffffffffffffffffff1673ffffffffffffffffffffffffffffffffffffffff16141515156107a557600080fd5b600260009054906101000a900473ffffffffffffffffffffffffffffffffffffffff1673ffffffffffffffffffffffffffffffffffffffff1663f9e97143836000604051602001526040518263ffffffff167c0100000000000000000000000000000000000000000000000000000000028152600401808273ffffffffffffffffffffffffffffffffffffffff1673ffffffffffffffffffffffffffffffffffffffff168152602001915050602060405180830381600087803b151561086a57600080fd5b6102c65a03f1151561087b57600080fd5b505050604051805190509050600073ffffffffffffffffffffffffffffffffffffffff16600160009054906101000a900473ffffffffffffffffffffffffffffffffffffffff1673ffffffffffffffffffffffffffffffffffffffff16141580156108f0575060008167ffffffffffffffff16145b156109d857600160009054906101000a900473ffffffffffffffffffffffffffffffffffffffff1673ffffffffffffffffffffffffffffffffffffffff1663a9f5df4a836000604051602001526040518263ffffffff167c0100000000000000000000000000000000000000000000000000000000028152600401808273ffffffffffffffffffffffffffffffffffffffff1673ffffffffffffffffffffffffffffffffffffffff168152602001915050602060405180830381600087803b15156109ba57600080fd5b6102c65a03f115156109cb57600080fd5b5050506040518051905090505b809050919050565b6000809054906101000a900473ffffffffffffffffffffffffffffffffffffffff1673ffffffffffffffffffffffffffffffffffffffff163373ffffffffffffffffffffffffffffffffffffffff16141515610a3b57600080fd5b806000806101000a81548173ffffffffffffffffffffffffffffffffffffffff021916908373ffffffffffffffffffffffffffffffffffffffff16021790555050565b60008073ffffffffffffffffffffffffffffffffffffffff16600260009054906101000a900473ffffffffffffffffffffffffffffffffffffffff1673ffffffffffffffffffffffffffffffffffffffff16141515610adc57600080fd5b610ae461138f565b604051809103906000f0801515610afa57600080fd5b600260006101000a81548173ffffffffffffffffffffffffffffffffffffffff021916908373ffffffffffffffffffffffffffffffffffffffff160217905550600260009054906101000a900473ffffffffffffffffffffffffffffffffffffffff16905090565b600080600073ffffffffffffffffffffffffffffffffffffffff16600260009054906101000a900473ffffffffffffffffffffffffffffffffffffffff1673ffffffffffffffffffffffffffffffffffffffff1614151515610bc357600080fd5b6000600260009054906101000a900473ffffffffffffffffffffffffffffffffffffffff1673ffffffffffffffffffffffffffffffffffffffff1663f9e97143856000604051602001526040518263ffffffff167c0100000000000000000000000000000000000000000000000000000000028152600401808273ffffffffffffffffffffffffffffffffffffffff1673ffffffffffffffffffffffffffffffffffffffff168152602001915050602060405180830381600087803b1515610c8a57600080fd5b6102c65a03f11515610c9b57600080fd5b5050506040518051905067ffffffffffffffff161415905080158015610d105750600073ffffffffffffffffffffffffffffffffffffffff16600160009054906101000a900473ffffffffffffffffffffffffffffffffffffffff1673ffffffffffffffffffffffffffffffffffffffff1614155b15610df857600160009054906101000a900473ffffffffffffffffffffffffffffffffffffffff1673ffffffffffffffffffffffffffffffffffffffff1663f6a3d24e846000604051602001526040518263ffffffff167c0100000000000000000000000000000000000000000000000000000000028152600401808273ffffffffffffffffffffffffffffffffffffffff1673ffffffffffffffffffffffffffffffffffffffff168152602001915050602060405180830381600087803b1515610dda57600080fd5b6102c65a03f11515610deb57600080fd5b5050506040518051905090505b80915050919050565b6000809054906101000a900473ffffffffffffffffffffffffffffffffffffffff1673ffffffffffffffffffffffffffffffffffffffff163373ffffffffffffffffffffffffffffffffffffffff16141515610e5c57600080fd5b80600160006101000a81548173ffffffffffffffffffffffffffffffffffffffff021916908373ffffffffffffffffffffffffffffffffffffffff16021790555050565b600073ffffffffffffffffffffffffffffffffffffffff16600260009054906101000a900473ffffffffffffffffffffffffffffffffffffffff1673ffffffffffffffffffffffffffffffffffffffff1614151515610efe57600080fd5b3073ffffffffffffffffffffffffffffffffffffffff1663f6a3d24e836000604051602001526040518263ffffffff167c0100000000000000000000000000000000000000000000000000000000028152600401808273ffffffffffffffffffffffffffffffffffffffff1673ffffffffffffffffffffffffffffffffffffffff168152602001915050602060405180830381600087803b1515610fa157600080fd5b6102c65a03f11515610fb257600080fd5b50505060405180519050151515610fc857600080fd5b600073ffffffffffffffffffffffffffffffffffffffff16600260009054906101000a900473ffffffffffffffffffffffffffffffffffffffff1673ffffffffffffffffffffffffffffffffffffffff1663a4ebef30836000604051602001526040518263ffffffff167c0100000000000000000000000000000000000000000000000000000000028152600401808267ffffffffffffffff1667ffffffffffffffff168152602001915050602060405180830381600087803b151561108d57600080fd5b6102c65a03f1151561109e57600080fd5b5050506040518051905073ffffffffffffffffffffffffffffffffffffffff161415156110ca57600080fd5b600260009054906101000a900473ffffffffffffffffffffffffffffffffffffffff1673ffffffffffffffffffffffffffffffffffffffff16639142108d83836000604051602001526040518363ffffffff167c0100000000000000000000000000000000000000000000000000000000028152600401808373ffffffffffffffffffffffffffffffffffffffff1673ffffffffffffffffffffffffffffffffffffffff1681526020018267ffffffffffffffff1667ffffffffffffffff16815260200192505050602060405180830381600087803b15156111ab57600080fd5b6102c65a03f115156111bc57600080fd5b5050506040518051905050600073ffffffffffffffffffffffffffffffffffffffff16600160009054906101000a900473ffffffffffffffffffffffffffffffffffffffff1673ffffffffffffffffffffffffffffffffffffffff1614151561130c57600160009054906101000a900473ffffffffffffffffffffffffffffffffffffffff1673ffffffffffffffffffffffffffffffffffffffff16632b45dd5f83836040518363ffffffff167c0100000000000000000000000000000000000000000000000000000000028152600401808373ffffffffffffffffffffffffffffffffffffffff1673ffffffffffffffffffffffffffffffffffffffff1681526020018267ffffffffffffffff1667ffffffffffffffff16815260200192505050600060405180830381600087803b15156112f757600080fd5b6102c65a03f1151561130857600080fd5b5050505b7faa278a3404a94f93fef9c6b0a268d5b13f91b5bbe66d408d5f1be3b9bc44d4db8282604051808373ffffffffffffffffffffffffffffffffffffffff1673ffffffffffffffffffffffffffffffffffffffff1681526020018267ffffffffffffffff1667ffffffffffffffff1681526020019250505060405180910390a15050565b604051610598806113a08339019056006060604052341561000f57600080fd5b336000806101000a81548173ffffffffffffffffffffffffffffffffffffffff021916908373ffffffffffffffffffffffffffffffffffffffff16021790555061053a8061005e6000396000f300606060405260043610610062576000357c0100000000000000000000000000000000000000000000000000000000900463ffffffff1680639142108d14610067578063a4ebef30146100db578063bb1c2edc14610148578063f9e9714314610181575b600080fd5b341561007257600080fd5b6100b1600480803573ffffffffffffffffffffffffffffffffffffffff1690602001909190803567ffffffffffffffff169060200190919050506101e2565b604051808267ffffffffffffffff1667ffffffffffffffff16815260200191505060405180910390f35b34156100e657600080fd5b610106600480803567ffffffffffffffff169060200190919050506103c2565b604051808273ffffffffffffffffffffffffffffffffffffffff1673ffffffffffffffffffffffffffffffffffffffff16815260200191505060405180910390f35b341561015357600080fd5b61017f600480803573ffffffffffffffffffffffffffffffffffffffff16906020019091905050610413565b005b341561018c57600080fd5b6101b8600480803573ffffffffffffffffffffffffffffffffffffffff169060200190919050506104b1565b604051808267ffffffffffffffff1667ffffffffffffffff16815260200191505060405180910390f35b60008060009054906101000a900473ffffffffffffffffffffffffffffffffffffffff1673ffffffffffffffffffffffffffffffffffffffff163373ffffffffffffffffffffffffffffffffffffffff1614151561023f57600080fd5b600260008473ffffffffffffffffffffffffffffffffffffffff1673ffffffffffffffffffffffffffffffffffffffff16815260200190815260200160002060009054906101000a900460ff1615151561029857600080fd5b81600160008573ffffffffffffffffffffffffffffffffffffffff1673ffffffffffffffffffffffffffffffffffffffff16815260200190815260200160002060006101000a81548167ffffffffffffffff021916908367ffffffffffffffff16021790555082600360008467ffffffffffffffff1667ffffffffffffffff16815260200190815260200160002060006101000a81548173ffffffffffffffffffffffffffffffffffffffff021916908373ffffffffffffffffffffffffffffffffffffffff1602179055506001600260008573ffffffffffffffffffffffffffffffffffffffff1673ffffffffffffffffffffffffffffffffffffffff16815260200190815260200160002060006101000a81548160ff02191690831515021790555092915050565b6000600360008367ffffffffffffffff1667ffffffffffffffff16815260200190815260200160002060009054906101000a900473ffffffffffffffffffffffffffffffffffffffff169050919050565b6000809054906101000a900473ffffffffffffffffffffffffffffffffffffffff1673ffffffffffffffffffffffffffffffffffffffff163373ffffffffffffffffffffffffffffffffffffffff1614151561046e57600080fd5b806000806101000a81548173ffffffffffffffffffffffffffffffffffffffff021916908373ffffffffffffffffffffffffffffffffffffffff16021790555050565b6000600160008373ffffffffffffffffffffffffffffffffffffffff1673ffffffffffffffffffffffffffffffffffffffff16815260200190815260200160002060009054906101000a900467ffffffffffffffff1690509190505600a165627a7a7230582046bcdf05e66ce2babf355ea32fc58e5801a39031e5c3c5c8060dcfb0d53eaedf0029a165627a7a723058205550026f8bcc880dfcfcd9273531c888d63c8572bf82a5bea9a0e54478cc9be70029",
  "source": "pragma solidity ^0.4.19;\n\n/// Owned contract as defined in Solidity documentation\ncontract owned\n{\n    function owned() public { owner = msg.sender; }\n    function delegateOwnership(address newOwner) public onlyOwner { owner = newOwner; }\n    address owner;\n\n        modifier onlyOwner {\n        require(msg.sender == owner);\n        _;\n    }\n}\n\ncontract EtherTrackNS is owned {\n    /// Fired on entries update\n    event updateEntries (address owner, uint64 GS1_GLN);\n\n    /// EtherTrackNS parent to forward queries\n    address _parent;\n    address _dataStore;\n\n    ///Fallback function\n    function() public payable {}\n\n    /// Constructor\n    function EtherTrackNS(address parent, address dataStore) public {\n        _parent = parent;\n        _dataStore = dataStore;\n    }\n\n    function createDataStore() public returns (address) {\n\t\t\trequire(_dataStore == address(0));\n\t\t\t_dataStore = new EtherTrackDataStore();\n\t\t\treturn _dataStore;\n    }\n\n    // Datastore\n    function getDataStoreAddress() public view returns(address) { return  _dataStore;}\n    function setDataStoreAddress(address dataStore) public onlyOwner {  _dataStore = dataStore;}\n\n    // NS Parent\n    function getParentAddress() public view returns(address) { return  _parent;}\n    function setParentAddress(address parent) public onlyOwner {  _parent = parent;}\n\n    /// updateRegisters\n    /// Upadtes registry with the provided node/name pair and a the secret for futur hashing\n    function updateRegisters(address node, uint64 GS1_GLN) internal {\n\t\t\trequire(_dataStore != address(0));\n\t\t\trequire(!this.exists(node));\n\t\t\trequire((EtherTrackDataStore(_dataStore).getNodebyName(GS1_GLN) == address(0)));\n\n\t\t\t//Update data store\n\t\t\tEtherTrackDataStore(_dataStore).setNamebyNode(node, GS1_GLN);\n\n\t\t\tif(_parent != address(0))\n\t\t\t\tEtherTrackNS(_parent).registerName(node, GS1_GLN); //Notify parent\n\n\t\t\tupdateEntries(node, GS1_GLN);\n    }\n\n    /// getNameByNodeAddress\n    /// Returns name corresponding to provided node address\n    function getNameByNodeAddress(address node) external view returns(uint64 _name) {\n\t\t\trequire(_dataStore != address(0));\n\t\t\t_name = EtherTrackDataStore(_dataStore).getNamebyNode(node);\n\n\t\t\tif(_parent != address(0) && _name == 0)\n\t\t\t\t_name = EtherTrackNS(_parent).getNameByNodeAddress(node);\n\n\t\t\treturn _name;\n    }\n\n    /// getNameByNodeAddress\n    /// Returns name corresponding to provided node address\n    function getNodeAddressByName(uint64 GS1_GLN) external view returns(address _node) {\n\t\t\t_node = EtherTrackDataStore(_dataStore).getNodebyName(GS1_GLN);\n\n\t\t\tif(_parent != address(0) && _node == address(0))\n\t\t\t\t_node = EtherTrackNS(_parent).getNodeAddressByName(GS1_GLN);\n\n\t\t\treturn _node;\n    }\n\n    /// getNameByNodeAddress\n    /// Returns name corresponding to provided node address\n    function exists(address node) external view returns(bool exists)\n    {\n\t\t\trequire(_dataStore != address(0));\n\n\t\t\tbool isRegistered = (EtherTrackDataStore(_dataStore).getNamebyNode(node) != 0);\n\n\t\t\tif(!isRegistered && _parent != address(0))\n\t\t\t\tisRegistered = EtherTrackNS(_parent).exists(node);\n\n\n\t\t\treturn isRegistered;\n    }\n\n    /// registerName\n    /// Registers name and asociate it to caller address\n    function registerName(address node, uint64 GS1_GLN) external payable  {\n\t\t\tif(node == address(0))\n\t\t\t\tupdateRegisters(owner, GS1_GLN);\n\t\t\telse\n\t\t\t\tupdateRegisters(node, GS1_GLN);\n    }\n\n    function kill() internal onlyOwner {\n        //Preserver data\n        EtherTrackDataStore(_dataStore).delegateOwnership(owner);\n        selfdestruct(owner);\n    }\n}\n\n/// Mortal contract as defined in Solidity documentation\ncontract mortal is owned {\n    function kill() internal onlyOwner {\n        selfdestruct(owner);\n    }\n}\n\n/// Storage contract\ncontract EtherTrackDataStore is owned, mortal {\n\n    /// Hash table that pair address with public name\n    mapping(address => uint64) private nameByNode;\n    mapping(address => bool) private registeredByNode;\n    mapping(uint64 => address) private nodeByName;\n\n    function EtherTrackDataStore() public {\n\n    }\n\n    function getNamebyNode (address node) external view returns (uint64) {\n        return nameByNode[node];\n    }\n\n    function getNodebyName (uint64 name) external view returns (address) {\n        return nodeByName[name];\n    }\n\n    function setNamebyNode (address node, uint64 name) external onlyOwner returns (uint64) {\n        require(!registeredByNode[node]);\n        nameByNode[node] = name;\n        nodeByName[name] = node;\n        registeredByNode[node] = true;\n    }\n}\n",
  "sourcePath": "/home/sunpaz/EtherTrack/Truffle-project/contracts/EtherTrackNS.sol",
  "compiler": {
    "name": "solc",
    "version": "0.4.19+commit.c4cbbb05.Emscripten.clang"
  },
  "schemaVersion": "2.0.0",
  "updatedAt": "2019-05-14T19:01:08.564Z"
}