{
  "contractName": "EtherTrackWarehouse",
  "abi": [
    {
      "constant": true,
      "inputs": [],
      "name": "Name",
      "outputs": [
        {
          "name": "",
          "type": "string"
        }
      ],
      "payable": false,
      "stateMutability": "view",
      "type": "function"
    },
    {
      "inputs": [
        {
          "name": "name",
          "type": "string"
        },
        {
          "name": "etherTrackNS",
          "type": "address"
        }
      ],
      "payable": false,
      "stateMutability": "nonpayable",
      "type": "constructor"
    },
    {
      "payable": true,
      "stateMutability": "payable",
      "type": "fallback"
    },
    {
      "anonymous": false,
      "inputs": [
        {
          "indexed": false,
          "name": "to",
          "type": "address"
        },
        {
          "indexed": false,
          "name": "hashedUnit",
          "type": "bytes32"
        }
      ],
      "name": "unitSent",
      "type": "event"
    },
    {
      "anonymous": false,
      "inputs": [
        {
          "indexed": false,
          "name": "from",
          "type": "address"
        },
        {
          "indexed": false,
          "name": "hashedUnit",
          "type": "bytes32"
        }
      ],
      "name": "unitReceived",
      "type": "event"
    },
    {
      "constant": false,
      "inputs": [
        {
          "name": "unit",
          "type": "string"
        }
      ],
      "name": "createUnit",
      "outputs": [],
      "payable": false,
      "stateMutability": "nonpayable",
      "type": "function"
    },
    {
      "constant": false,
      "inputs": [
        {
          "name": "unit",
          "type": "string"
        },
        {
          "name": "to",
          "type": "address"
        }
      ],
      "name": "sendUnitTo",
      "outputs": [],
      "payable": true,
      "stateMutability": "payable",
      "type": "function"
    },
    {
      "constant": false,
      "inputs": [
        {
          "name": "hashedUnit",
          "type": "bytes32"
        }
      ],
      "name": "confirmUnitSent",
      "outputs": [
        {
          "name": "",
          "type": "bytes32"
        }
      ],
      "payable": true,
      "stateMutability": "payable",
      "type": "function"
    },
    {
      "constant": false,
      "inputs": [
        {
          "name": "hashedUnit",
          "type": "bytes32"
        }
      ],
      "name": "receiveUnit",
      "outputs": [],
      "payable": true,
      "stateMutability": "payable",
      "type": "function"
    },
    {
      "constant": false,
      "inputs": [
        {
          "name": "from",
          "type": "address"
        },
        {
          "name": "hashedUnit",
          "type": "bytes32"
        }
      ],
      "name": "confirmUnitReceived",
      "outputs": [
        {
          "name": "",
          "type": "bytes32"
        }
      ],
      "payable": true,
      "stateMutability": "payable",
      "type": "function"
    }
  ],
  "bytecode": "0x606060405234156200001057600080fd5b604051620011613803806200116183398101604052808051820191906020018051906020019091905050336000806101000a81548173ffffffffffffffffffffffffffffffffffffffff021916908373ffffffffffffffffffffffffffffffffffffffff16021790555080600260006101000a81548173ffffffffffffffffffffffffffffffffffffffff021916908373ffffffffffffffffffffffffffffffffffffffff160217905550600073ffffffffffffffffffffffffffffffffffffffff168173ffffffffffffffffffffffffffffffffffffffff1614151515620000f857600080fd5b600115156200013c6000809054906101000a900473ffffffffffffffffffffffffffffffffffffffff166200016c6401000000000262000d36176401000000009004565b15151415156200014b57600080fd5b81600190805190602001906200016392919062000257565b50505062000306565b6000600260009054906101000a900473ffffffffffffffffffffffffffffffffffffffff1673ffffffffffffffffffffffffffffffffffffffff1663f6a3d24e836000604051602001526040518263ffffffff167c0100000000000000000000000000000000000000000000000000000000028152600401808273ffffffffffffffffffffffffffffffffffffffff1673ffffffffffffffffffffffffffffffffffffffff168152602001915050602060405180830381600087803b15156200023457600080fd5b6102c65a03f115156200024657600080fd5b505050604051805190509050919050565b828054600181600116156101000203166002900490600052602060002090601f016020900481019282601f106200029a57805160ff1916838001178555620002cb565b82800160010185558215620002cb579182015b82811115620002ca578251825591602001919060010190620002ad565b5b509050620002da9190620002de565b5090565b6200030391905b80821115620002ff576000816000905550600101620002e5565b5090565b90565b610e4b80620003166000396000f300606060405260043610610078576000357c0100000000000000000000000000000000000000000000000000000000900463ffffffff1680633c79d1cb1461007a57806347ab8ba7146100eb5780636d8ae5f6146101485780637950e040146101645780638052474d146101bb578063c813fef714610249575b005b6100e9600480803590602001908201803590602001908080601f0160208091040260200160405190810160405280939291908181526020018383808284378201915050505050509190803573ffffffffffffffffffffffffffffffffffffffff16906020019091905050610281565b005b34156100f657600080fd5b610146600480803590602001908201803590602001908080601f0160208091040260200160405190810160405280939291908181526020018383808284378201915050505050509190505061059d565b005b610162600480803560001916906020019091905050610766565b005b61019d600480803573ffffffffffffffffffffffffffffffffffffffff169060200190919080356000191690602001909190505061099b565b60405180826000191660001916815260200191505060405180910390f35b34156101c657600080fd5b6101ce610a88565b6040518080602001828103825283818151815260200191508051906020019080838360005b8381101561020e5780820151818401526020810190506101f3565b50505050905090810190601f16801561023b5780820380516001836020036101000a031916815260200191505b509250505060405180910390f35b610263600480803560001916906020019091905050610b26565b60405180826000191660001916815260200191505060405180910390f35b60008060009054906101000a900473ffffffffffffffffffffffffffffffffffffffff1673ffffffffffffffffffffffffffffffffffffffff163373ffffffffffffffffffffffffffffffffffffffff161415156102de57600080fd5b826040518082805190602001908083835b60208310151561031457805182526020820191506020810190506020830392506102ef565b6001836020036101000a038019825116818451168082178552505050505050905001915050604051809103902090503073ffffffffffffffffffffffffffffffffffffffff168273ffffffffffffffffffffffffffffffffffffffff161415151561037e57600080fd5b60036000826000191660001916815260200190815260200160002060009054906101000a900460ff1615156103b257600080fd5b60001515600460008473ffffffffffffffffffffffffffffffffffffffff1673ffffffffffffffffffffffffffffffffffffffff1681526020019081526020016000206000836000191660001916815260200190815260200160002060009054906101000a900460ff16151514151561042a57600080fd5b6001600460008473ffffffffffffffffffffffffffffffffffffffff1673ffffffffffffffffffffffffffffffffffffffff1681526020019081526020016000206000836000191660001916815260200190815260200160002060006101000a81548160ff0219169083151502179055508173ffffffffffffffffffffffffffffffffffffffff16636d8ae5f6826040518263ffffffff167c0100000000000000000000000000000000000000000000000000000000028152600401808260001916600019168152602001915050600060405180830381600087803b151561051157600080fd5b6102c65a03f1151561052257600080fd5b5050507f3dc15ec240b67606af1e9c763524afd0df016ec293b5ff91d8af1fba7637e18a8282604051808373ffffffffffffffffffffffffffffffffffffffff1673ffffffffffffffffffffffffffffffffffffffff16815260200182600019166000191681526020019250505060405180910390a1505050565b60008060009054906101000a900473ffffffffffffffffffffffffffffffffffffffff1673ffffffffffffffffffffffffffffffffffffffff163373ffffffffffffffffffffffffffffffffffffffff161415156105fa57600080fd5b816040518082805190602001908083835b602083101515610630578051825260208201915060208101905060208303925061060b565b6001836020036101000a038019825116818451168082178552505050505050905001915050604051809103902090506000151560036000836000191660001916815260200190815260200160002060009054906101000a900460ff16151514151561069a57600080fd5b600160036000836000191660001916815260200190815260200160002060006101000a81548160ff0219169083151502179055507fb578918593d8972f77ab5d2b7e9a3b936526926e018791612dea9f0bad03395d6000809054906101000a900473ffffffffffffffffffffffffffffffffffffffff1682604051808373ffffffffffffffffffffffffffffffffffffffff1673ffffffffffffffffffffffffffffffffffffffff16815260200182600019166000191681526020019250505060405180910390a15050565b3073ffffffffffffffffffffffffffffffffffffffff163373ffffffffffffffffffffffffffffffffffffffff16141515156107a157600080fd5b60001515600560003373ffffffffffffffffffffffffffffffffffffffff1673ffffffffffffffffffffffffffffffffffffffff1681526020019081526020016000206000836000191660001916815260200190815260200160002060009054906101000a900460ff16151514151561081957600080fd5b6001600560003373ffffffffffffffffffffffffffffffffffffffff1673ffffffffffffffffffffffffffffffffffffffff1681526020019081526020016000206000836000191660001916815260200190815260200160002060006101000a81548160ff0219169083151502179055503373ffffffffffffffffffffffffffffffffffffffff1663c813fef7826000604051602001526040518263ffffffff167c0100000000000000000000000000000000000000000000000000000000028152600401808260001916600019168152602001915050602060405180830381600087803b151561090957600080fd5b6102c65a03f1151561091a57600080fd5b50505060405180519050507fb578918593d8972f77ab5d2b7e9a3b936526926e018791612dea9f0bad03395d3382604051808373ffffffffffffffffffffffffffffffffffffffff1673ffffffffffffffffffffffffffffffffffffffff16815260200182600019166000191681526020019250505060405180910390a150565b6000600560008473ffffffffffffffffffffffffffffffffffffffff1673ffffffffffffffffffffffffffffffffffffffff1681526020019081526020016000206000836000191660001916815260200190815260200160002060009054906101000a900460ff161515610a0e57600080fd5b6000600560008573ffffffffffffffffffffffffffffffffffffffff1673ffffffffffffffffffffffffffffffffffffffff1681526020019081526020016000206000846000191660001916815260200190815260200160002060006101000a81548160ff02191690831515021790555081905092915050565b60018054600181600116156101000203166002900480601f016020809104026020016040519081016040528092919081815260200182805460018160011615610100020316600290048015610b1e5780601f10610af357610100808354040283529160200191610b1e565b820191906000526020600020905b815481529060010190602001808311610b0157829003601f168201915b505050505081565b6000600460003373ffffffffffffffffffffffffffffffffffffffff1673ffffffffffffffffffffffffffffffffffffffff1681526020019081526020016000206000836000191660001916815260200190815260200160002060009054906101000a900460ff161515610b9957600080fd5b6000600460003373ffffffffffffffffffffffffffffffffffffffff1673ffffffffffffffffffffffffffffffffffffffff1681526020019081526020016000206000846000191660001916815260200190815260200160002060006101000a81548160ff021916908315150217905550600060036000846000191660001916815260200190815260200160002060006101000a81548160ff0219169083151502179055503373ffffffffffffffffffffffffffffffffffffffff16637950e0406000809054906101000a900473ffffffffffffffffffffffffffffffffffffffff16846000604051602001526040518363ffffffff167c0100000000000000000000000000000000000000000000000000000000028152600401808373ffffffffffffffffffffffffffffffffffffffff1673ffffffffffffffffffffffffffffffffffffffff168152602001826000191660001916815260200192505050602060405180830381600087803b1515610d1257600080fd5b6102c65a03f11515610d2357600080fd5b5050506040518051905050819050919050565b6000600260009054906101000a900473ffffffffffffffffffffffffffffffffffffffff1673ffffffffffffffffffffffffffffffffffffffff1663f6a3d24e836000604051602001526040518263ffffffff167c0100000000000000000000000000000000000000000000000000000000028152600401808273ffffffffffffffffffffffffffffffffffffffff1673ffffffffffffffffffffffffffffffffffffffff168152602001915050602060405180830381600087803b1515610dfd57600080fd5b6102c65a03f11515610e0e57600080fd5b5050506040518051905090509190505600a165627a7a72305820a9edc7319f896c8f30fc6d8859b3a1e0ddd76602a86d505aa5fe3eca76f4f7830029",
  "source": "pragma solidity ^0.4.19;\n\n\n/// Owned contract as defined in Solidity documentation\ncontract owned\n{\n    function owned() public { owner = msg.sender; }\n    address owner;\n    \n        modifier onlyOwner {\n        require(msg.sender == owner);\n        _;\n    }\n}\n\n/// Mortal contract as defined in Solidity documentation\ncontract mortal is owned {\n    function kill() internal onlyOwner {\n        selfdestruct(owner);\n    }\n}\n\n/// Interface\ncontract EtherTrackNS is owned {\n    /// updateRegisters\n    /// Upadtes registry with the provided node/name pair and a the secret for futur hashing\n    function updateRegisters(address node, uint64 GS1_GLN) internal returns(bool registered);\n\n    /// getNameByNodeAddress\n    /// Returns name corresponding to provided node address\n    function getNameByNodeAddress(address node) external view returns(uint64 _name);\n    \n    /// getNameByNodeAddress\n    /// Returns name corresponding to provided node address\n    function exists(address node) external view returns(bool exists);\n    \n    /// registerName\n    /// Registers name and asociate it to caller address\n    function registerName(address node, uint64 GS1_GLN) external payable returns(bool registered);\n\n    /// delegate\n    /// Delegate name to specified address\n    function delegate (address to) external payable;\n}\n\ncontract EtherTrackWarehouse is owned, mortal {\n\n    event unitSent(address to, bytes32 hashedUnit);\n    event unitReceived(address from, bytes32 hashedUnit);\n\n    string public Name;\n    address _etherTrackNS; /// Store naming service contract reference\n    \n    mapping(bytes32 => bool) internal  _stock; /// Stock\n    mapping(address => mapping(bytes32 => bool)) internal _sentBufferByDestination; /// Register units that are in pending reception state\n    mapping(address => mapping(bytes32 => bool)) internal _receivedBufferByDestination; /// Register units that are in pending reception state    \n\n    /// Fallback function\n    function() public payable { }    \n\n    function EtherTrackWarehouse (string name, address etherTrackNS) public {\n        _etherTrackNS = etherTrackNS;\n\n        //Validate that owner is registred on the naming service and that GS1 AI are well formed\n        require(etherTrackNS != address(0));\n        require(validateNode(owner) == true);\n\n        Name = name;\n    }\n    \n    function createUnit(string unit) public onlyOwner {\n        bytes32 hashedUnit = keccak256(unit);\n        \n        require(_stock[hashedUnit] == false);\n        \n        _stock[hashedUnit] = true;\n\tunitReceived(owner, hashedUnit);\n    }\n\n    /// Send specified unit to specified warehouse\n    function sendUnitTo(string unit, address to) public payable onlyOwner {\n        bytes32 hashedUnit = keccak256(unit);\n        \n        require(to != address(this));\n        require(_stock[hashedUnit]); // Is in stock\n        require(_sentBufferByDestination[to][hashedUnit] == false); // Not already sent\n        \n        _sentBufferByDestination[to][hashedUnit] = true;\n        EtherTrackWarehouse(to).receiveUnit(hashedUnit);\n\tunitSent(to, hashedUnit);\n    }\n    \n    /// Confirm unit received (called by sender contract)\n    function confirmUnitSent(bytes32 hashedUnit) public payable returns (bytes32) {\n        require(_sentBufferByDestination[msg.sender][hashedUnit]); /// Caller got one unit in the _sentBufferByDestination\n        \n        _sentBufferByDestination[msg.sender][hashedUnit] = false;\n        _stock[hashedUnit] = false;\n        \n        EtherTrackWarehouse(msg.sender).confirmUnitReceived(owner, hashedUnit);\n        \n        return hashedUnit;\n    }\n    \n    /// Receive unit (called by sender contract)\n    function receiveUnit(bytes32 hashedUnit) external payable  {\n        require(msg.sender != address(this));\n        require(_receivedBufferByDestination[msg.sender][hashedUnit] == false);\n        \n        _receivedBufferByDestination[msg.sender][hashedUnit] = true;\n        \n        EtherTrackWarehouse(msg.sender).confirmUnitSent(hashedUnit);\n\tunitReceived(msg.sender, hashedUnit);\n    }\n    \n    /// Confirm unit received (called by sender contract)\n    function confirmUnitReceived(address from, bytes32 hashedUnit) public payable returns (bytes32) {\n        require(_receivedBufferByDestination[from][hashedUnit]); /// Caller got one unit in the _sentBufferByDestination\n        \n        _receivedBufferByDestination[from][hashedUnit] = false;\n        //_stock[unit] = true;\n        \n        return hashedUnit;\n    }\n    \n    /// Validate that provided node exists\n    function validateNode(address node) view internal returns (bool) { return EtherTrackNS(_etherTrackNS).exists(node); }\n}\n",
  "sourcePath": "/home/sunpaz/Truffle/contracts/EtherTrackWarehouse.sol",
  "compiler": {
    "name": "solc",
    "version": "0.4.19+commit.c4cbbb05.Emscripten.clang"
  },
  "schemaVersion": "2.0.0",
  "updatedAt": "2018-03-13T13:44:53.140Z"
}