{
  "contractName": "EtherTrackWarehouse",
  "abi": [
    {
      "constant": true,
      "inputs": [],
      "name": "Name",
      "outputs": [
        {
          "name": "",
          "type": "string"
        }
      ],
      "payable": false,
      "stateMutability": "view",
      "type": "function"
    },
    {
      "inputs": [
        {
          "name": "name",
          "type": "string"
        },
        {
          "name": "etherTrackNS",
          "type": "address"
        }
      ],
      "payable": false,
      "stateMutability": "nonpayable",
      "type": "constructor"
    },
    {
      "payable": true,
      "stateMutability": "payable",
      "type": "fallback"
    },
    {
      "anonymous": false,
      "inputs": [
        {
          "indexed": false,
          "name": "to",
          "type": "address"
        },
        {
          "indexed": false,
          "name": "hashedUnit",
          "type": "bytes32"
        }
      ],
      "name": "unitSent",
      "type": "event"
    },
    {
      "anonymous": false,
      "inputs": [
        {
          "indexed": false,
          "name": "from",
          "type": "address"
        },
        {
          "indexed": false,
          "name": "hashedUnit",
          "type": "bytes32"
        }
      ],
      "name": "unitReceived",
      "type": "event"
    },
    {
      "constant": false,
      "inputs": [
        {
          "name": "unit",
          "type": "string"
        }
      ],
      "name": "createUnit",
      "outputs": [],
      "payable": false,
      "stateMutability": "nonpayable",
      "type": "function"
    },
    {
      "constant": false,
      "inputs": [
        {
          "name": "unit",
          "type": "string"
        },
        {
          "name": "to",
          "type": "address"
        }
      ],
      "name": "sendUnitTo",
      "outputs": [],
      "payable": true,
      "stateMutability": "payable",
      "type": "function"
    },
    {
      "constant": false,
      "inputs": [
        {
          "name": "hashedUnit",
          "type": "bytes32"
        }
      ],
      "name": "receiveUnit",
      "outputs": [],
      "payable": true,
      "stateMutability": "payable",
      "type": "function"
    }
  ],
  "bytecode": "0x6060604052341561000f57600080fd5b604051610c54380380610c5483398101604052808051820191906020018051906020019091905050336000806101000a81548173ffffffffffffffffffffffffffffffffffffffff021916908373ffffffffffffffffffffffffffffffffffffffff16021790555080600260006101000a81548173ffffffffffffffffffffffffffffffffffffffff021916908373ffffffffffffffffffffffffffffffffffffffff160217905550600073ffffffffffffffffffffffffffffffffffffffff168173ffffffffffffffffffffffffffffffffffffffff16141515156100f457600080fd5b600115156101356000809054906101000a900473ffffffffffffffffffffffffffffffffffffffff1661016164010000000002610841176401000000009004565b151514151561014357600080fd5b816001908051906020019061015992919061024a565b5050506102ef565b6000600260009054906101000a900473ffffffffffffffffffffffffffffffffffffffff1673ffffffffffffffffffffffffffffffffffffffff1663f6a3d24e836000604051602001526040518263ffffffff167c0100000000000000000000000000000000000000000000000000000000028152600401808273ffffffffffffffffffffffffffffffffffffffff1673ffffffffffffffffffffffffffffffffffffffff168152602001915050602060405180830381600087803b151561022857600080fd5b6102c65a03f1151561023957600080fd5b505050604051805190509050919050565b828054600181600116156101000203166002900490600052602060002090601f016020900481019282601f1061028b57805160ff19168380011785556102b9565b828001600101855582156102b9579182015b828111156102b857825182559160200191906001019061029d565b5b5090506102c691906102ca565b5090565b6102ec91905b808211156102e85760008160009055506001016102d0565b5090565b90565b610956806102fe6000396000f300606060405260043610610062576000357c0100000000000000000000000000000000000000000000000000000000900463ffffffff1680633c79d1cb1461006457806347ab8ba7146100d55780636d8ae5f6146101325780638052474d1461014e575b005b6100d3600480803590602001908201803590602001908080601f0160208091040260200160405190810160405280939291908181526020018383808284378201915050505050509190803573ffffffffffffffffffffffffffffffffffffffff169060200190919050506101dc565b005b34156100e057600080fd5b610130600480803590602001908201803590602001908080601f01602080910402602001604051908101604052809392919081815260200183838082843782019150505050505091905050610533565b005b61014c6004808035600019169060200190919050506106be565b005b341561015957600080fd5b6101616107a3565b6040518080602001828103825283818151815260200191508051906020019080838360005b838110156101a1578082015181840152602081019050610186565b50505050905090810190601f1680156101ce5780820380516001836020036101000a031916815260200191505b509250505060405180910390f35b60008060009054906101000a900473ffffffffffffffffffffffffffffffffffffffff1673ffffffffffffffffffffffffffffffffffffffff163373ffffffffffffffffffffffffffffffffffffffff1614151561023957600080fd5b826040518082805190602001908083835b60208310151561026f578051825260208201915060208101905060208303925061024a565b6001836020036101000a038019825116818451168082178552505050505050905001915050604051809103902090503073ffffffffffffffffffffffffffffffffffffffff168273ffffffffffffffffffffffffffffffffffffffff16141515156102d957600080fd5b6001151560036000836000191660001916815260200190815260200160002060009054906101000a900460ff16151514151561031457600080fd5b60001515600460008473ffffffffffffffffffffffffffffffffffffffff1673ffffffffffffffffffffffffffffffffffffffff1681526020019081526020016000206000836000191660001916815260200190815260200160002060009054906101000a900460ff16151514151561038c57600080fd5b6001600460008473ffffffffffffffffffffffffffffffffffffffff1673ffffffffffffffffffffffffffffffffffffffff1681526020019081526020016000206000836000191660001916815260200190815260200160002060006101000a81548160ff0219169083151502179055508173ffffffffffffffffffffffffffffffffffffffff16636d8ae5f6826040518263ffffffff167c0100000000000000000000000000000000000000000000000000000000028152600401808260001916600019168152602001915050600060405180830381600087803b151561047357600080fd5b6102c65a03f1151561048457600080fd5b505050600060036000836000191660001916815260200190815260200160002060006101000a81548160ff0219169083151502179055507f3dc15ec240b67606af1e9c763524afd0df016ec293b5ff91d8af1fba7637e18a8282604051808373ffffffffffffffffffffffffffffffffffffffff1673ffffffffffffffffffffffffffffffffffffffff16815260200182600019166000191681526020019250505060405180910390a1505050565b60008060009054906101000a900473ffffffffffffffffffffffffffffffffffffffff1673ffffffffffffffffffffffffffffffffffffffff163373ffffffffffffffffffffffffffffffffffffffff1614151561059057600080fd5b816040518082805190602001908083835b6020831015156105c657805182526020820191506020810190506020830392506105a1565b6001836020036101000a038019825116818451168082178552505050505050905001915050604051809103902090506000151560036000836000191660001916815260200190815260200160002060009054906101000a900460ff16151514151561063057600080fd5b3073ffffffffffffffffffffffffffffffffffffffff16636d8ae5f6826040518263ffffffff167c0100000000000000000000000000000000000000000000000000000000028152600401808260001916600019168152602001915050600060405180830381600087803b15156106a657600080fd5b6102c65a03f115156106b757600080fd5b5050505050565b3073ffffffffffffffffffffffffffffffffffffffff163373ffffffffffffffffffffffffffffffffffffffff16141515156106f957600080fd5b600160036000836000191660001916815260200190815260200160002060006101000a81548160ff0219169083151502179055507fb578918593d8972f77ab5d2b7e9a3b936526926e018791612dea9f0bad03395d3382604051808373ffffffffffffffffffffffffffffffffffffffff1673ffffffffffffffffffffffffffffffffffffffff16815260200182600019166000191681526020019250505060405180910390a150565b60018054600181600116156101000203166002900480601f0160208091040260200160405190810160405280929190818152602001828054600181600116156101000203166002900480156108395780601f1061080e57610100808354040283529160200191610839565b820191906000526020600020905b81548152906001019060200180831161081c57829003601f168201915b505050505081565b6000600260009054906101000a900473ffffffffffffffffffffffffffffffffffffffff1673ffffffffffffffffffffffffffffffffffffffff1663f6a3d24e836000604051602001526040518263ffffffff167c0100000000000000000000000000000000000000000000000000000000028152600401808273ffffffffffffffffffffffffffffffffffffffff1673ffffffffffffffffffffffffffffffffffffffff168152602001915050602060405180830381600087803b151561090857600080fd5b6102c65a03f1151561091957600080fd5b5050506040518051905090509190505600a165627a7a723058204cfea69e3d6797b28f401008bfc71469493515f77e774c59159806a4c3727b5c0029",
  "source": "pragma solidity ^0.4.19;\n\n\n/// Owned contract as defined in Solidity documentation\ncontract owned\n{\n    function owned() public { owner = msg.sender; }\n    address owner;\n    \n        modifier onlyOwner {\n        require(msg.sender == owner);\n        _;\n    }\n}\n\n/// Mortal contract as defined in Solidity documentation\ncontract mortal is owned {\n    function kill() internal onlyOwner {\n        selfdestruct(owner);\n    }\n}\n\n/// Interface\ncontract EtherTrackNS is owned {\n    /// updateRegisters\n    /// Upadtes registry with the provided node/name pair and a the secret for futur hashing\n    function updateRegisters(address node, uint64 GS1_GLN) internal returns(bool registered);\n\n    /// getNameByNodeAddress\n    /// Returns name corresponding to provided node address\n    function getNameByNodeAddress(address node) external view returns(uint64 _name);\n\n   /// getNodeAddressByName\n   /// Returns node address corresponding to provided name\n   function getNodeAddressByName(uint64 GS1_GLN) external view returns(address _node);\n    \n    /// getNameByNodeAddress\n    /// Returns name corresponding to provided node address\n    function exists(address node) external view returns(bool exists);\n    \n    /// registerName\n    /// Registers name and asociate it to caller address\n    function registerName(address node, uint64 GS1_GLN) external payable returns(bool registered);\n\n    /// delegate\n    /// Delegate name to specified address\n    function delegate (address to) external payable;\n}\n\ncontract EtherTrackWarehouse is owned, mortal {\n\n    event unitSent(address to, bytes32 hashedUnit);\n    event unitReceived(address from, bytes32 hashedUnit);\n\n    string public Name;\n    address _etherTrackNS; /// Store naming service contract reference\n    \n    mapping(bytes32 => bool) internal  _stock; /// Stock\n    mapping(address => mapping(bytes32 => bool)) internal _sentBufferByDestination; /// Register units that are in pending reception state\n    mapping(address => mapping(bytes32 => bool)) internal _receivedBufferByDestination; /// Register units that are in pending reception state    \n\n    /// Fallback function\n    function() public payable { }    \n\n    function EtherTrackWarehouse (string name, address etherTrackNS) public {\n        _etherTrackNS = etherTrackNS;\n\n        //Validate that owner is registred on the naming service and that GS1 AI are well formed\n        require(etherTrackNS != address(0));\n        require(validateNode(owner) == true);\n\n        Name = name;\n    }\n    \n    function createUnit(string unit) public onlyOwner {\n        bytes32 hashedUnit = keccak256(unit);\n        \n        require(_stock[hashedUnit] == false);\n\tthis.receiveUnit(hashedUnit);\n    }\n\n    /// Send specified unit to specified warehouse\n    function sendUnitTo(string unit, address to) public payable onlyOwner {\n        bytes32 hashedUnit = keccak256(unit);\n        \n        require(to != address(this));\n        require(_stock[hashedUnit] == true); // Is in stock\n        require(_sentBufferByDestination[to][hashedUnit] == false); // Not already sent\n        \n        _sentBufferByDestination[to][hashedUnit] = true;\n        EtherTrackWarehouse(to).receiveUnit(hashedUnit);\t\n        _stock[hashedUnit] = false;        \n\n\tunitSent(to, hashedUnit);\n    }\n    \n    /// Receive unit (called by sender contract)\n    function receiveUnit(bytes32 hashedUnit) external payable  {\n        require(msg.sender != address(this));\n\n\t_stock[hashedUnit] = true;        \n\tunitReceived(msg.sender, hashedUnit);\n    }\n    \n    /// Validate that provided node exists\n    function validateNode(address node) view internal returns (bool) { return EtherTrackNS(_etherTrackNS).exists(node); }\n}\n",
  "sourcePath": "/home/sunpaz/Truffle/contracts/EtherTrackWarehouse.sol",
  "compiler": {
    "name": "solc",
    "version": "0.4.19+commit.c4cbbb05.Emscripten.clang"
  },
  "schemaVersion": "2.0.0",
  "updatedAt": "2018-03-23T16:30:57.018Z"
}