{
  "contractName": "EtherTrackNS",
  "abi": [
    {
      "constant": false,
      "inputs": [
        {
          "name": "newOwner",
          "type": "address"
        }
      ],
      "name": "delegateOwnership",
      "outputs": [],
      "payable": false,
      "stateMutability": "nonpayable",
      "type": "function"
    },
    {
      "inputs": [
        {
          "name": "parent",
          "type": "address"
        },
        {
          "name": "dataStore",
          "type": "address"
        }
      ],
      "payable": false,
      "stateMutability": "nonpayable",
      "type": "constructor"
    },
    {
      "payable": true,
      "stateMutability": "payable",
      "type": "fallback"
    },
    {
      "anonymous": false,
      "inputs": [
        {
          "indexed": false,
          "name": "owner",
          "type": "address"
        },
        {
          "indexed": false,
          "name": "GS1_GLN",
          "type": "uint64"
        }
      ],
      "name": "updateEntries",
      "type": "event"
    },
    {
      "constant": false,
      "inputs": [],
      "name": "createDataStore",
      "outputs": [
        {
          "name": "",
          "type": "address"
        }
      ],
      "payable": false,
      "stateMutability": "nonpayable",
      "type": "function"
    },
    {
      "constant": true,
      "inputs": [],
      "name": "getDataStoreAddress",
      "outputs": [
        {
          "name": "",
          "type": "address"
        }
      ],
      "payable": false,
      "stateMutability": "view",
      "type": "function"
    },
    {
      "constant": false,
      "inputs": [
        {
          "name": "dataStore",
          "type": "address"
        }
      ],
      "name": "setDataStoreAddress",
      "outputs": [],
      "payable": false,
      "stateMutability": "nonpayable",
      "type": "function"
    },
    {
      "constant": true,
      "inputs": [
        {
          "name": "node",
          "type": "address"
        }
      ],
      "name": "getNameByNodeAddress",
      "outputs": [
        {
          "name": "_name",
          "type": "uint64"
        }
      ],
      "payable": false,
      "stateMutability": "view",
      "type": "function"
    },
    {
      "constant": true,
      "inputs": [
        {
          "name": "GS1_GLN",
          "type": "uint64"
        }
      ],
      "name": "getNodeAddressByName",
      "outputs": [
        {
          "name": "_node",
          "type": "address"
        }
      ],
      "payable": false,
      "stateMutability": "view",
      "type": "function"
    },
    {
      "constant": true,
      "inputs": [
        {
          "name": "node",
          "type": "address"
        }
      ],
      "name": "exists",
      "outputs": [
        {
          "name": "exists",
          "type": "bool"
        }
      ],
      "payable": false,
      "stateMutability": "view",
      "type": "function"
    },
    {
      "constant": false,
      "inputs": [
        {
          "name": "node",
          "type": "address"
        },
        {
          "name": "GS1_GLN",
          "type": "uint64"
        }
      ],
      "name": "registerName",
      "outputs": [
        {
          "name": "registered",
          "type": "bool"
        }
      ],
      "payable": true,
      "stateMutability": "payable",
      "type": "function"
    }
  ],
  "bytecode": "0x6060604052341561000f57600080fd5b60405160408061181983398101604052808051906020019091908051906020019091905050336000806101000a81548173ffffffffffffffffffffffffffffffffffffffff021916908373ffffffffffffffffffffffffffffffffffffffff16021790555081600160006101000a81548173ffffffffffffffffffffffffffffffffffffffff021916908373ffffffffffffffffffffffffffffffffffffffff16021790555080600260006101000a81548173ffffffffffffffffffffffffffffffffffffffff021916908373ffffffffffffffffffffffffffffffffffffffff1602179055505050611712806101076000396000f30060606040526004361061008e576000357c0100000000000000000000000000000000000000000000000000000000900463ffffffff1680632b45dd5f14610090578063393b81bc146100e9578063542c21b1146101565780635f53667b1461018f578063a9f5df4a146101e4578063bb1c2edc14610245578063f2df601c1461027e578063f6a3d24e146102d3575b005b6100cf600480803573ffffffffffffffffffffffffffffffffffffffff1690602001909190803567ffffffffffffffff16906020019091905050610324565b604051808215151515815260200191505060405180910390f35b34156100f457600080fd5b610114600480803567ffffffffffffffff1690602001909190505061037e565b604051808273ffffffffffffffffffffffffffffffffffffffff1673ffffffffffffffffffffffffffffffffffffffff16815260200191505060405180910390f35b341561016157600080fd5b61018d600480803573ffffffffffffffffffffffffffffffffffffffff169060200190919050506105ad565b005b341561019a57600080fd5b6101a261064c565b604051808273ffffffffffffffffffffffffffffffffffffffff1673ffffffffffffffffffffffffffffffffffffffff16815260200191505060405180910390f35b34156101ef57600080fd5b61021b600480803573ffffffffffffffffffffffffffffffffffffffff16906020019091905050610676565b604051808267ffffffffffffffff1667ffffffffffffffff16815260200191505060405180910390f35b341561025057600080fd5b61027c600480803573ffffffffffffffffffffffffffffffffffffffff169060200190919050506108c9565b005b341561028957600080fd5b610291610967565b604051808273ffffffffffffffffffffffffffffffffffffffff1673ffffffffffffffffffffffffffffffffffffffff16815260200191505060405180910390f35b34156102de57600080fd5b61030a600480803573ffffffffffffffffffffffffffffffffffffffff16906020019091905050610a4b565b604051808215151515815260200191505060405180910390f35b60008073ffffffffffffffffffffffffffffffffffffffff168373ffffffffffffffffffffffffffffffffffffffff16141561036b576103643383610c8c565b9050610378565b6103758383610c8c565b90505b92915050565b6000600260009054906101000a900473ffffffffffffffffffffffffffffffffffffffff1673ffffffffffffffffffffffffffffffffffffffff1663a4ebef30836000604051602001526040518263ffffffff167c0100000000000000000000000000000000000000000000000000000000028152600401808267ffffffffffffffff1667ffffffffffffffff168152602001915050602060405180830381600087803b151561042d57600080fd5b6102c65a03f1151561043e57600080fd5b505050604051805190509050600073ffffffffffffffffffffffffffffffffffffffff16600160009054906101000a900473ffffffffffffffffffffffffffffffffffffffff1673ffffffffffffffffffffffffffffffffffffffff16141580156104d55750600073ffffffffffffffffffffffffffffffffffffffff168173ffffffffffffffffffffffffffffffffffffffff16145b156105a557600160009054906101000a900473ffffffffffffffffffffffffffffffffffffffff1673ffffffffffffffffffffffffffffffffffffffff1663393b81bc836000604051602001526040518263ffffffff167c0100000000000000000000000000000000000000000000000000000000028152600401808267ffffffffffffffff1667ffffffffffffffff168152602001915050602060405180830381600087803b151561058757600080fd5b6102c65a03f1151561059857600080fd5b5050506040518051905090505b809050919050565b6000809054906101000a900473ffffffffffffffffffffffffffffffffffffffff1673ffffffffffffffffffffffffffffffffffffffff163373ffffffffffffffffffffffffffffffffffffffff1614151561060857600080fd5b80600260006101000a81548173ffffffffffffffffffffffffffffffffffffffff021916908373ffffffffffffffffffffffffffffffffffffffff16021790555050565b6000600260009054906101000a900473ffffffffffffffffffffffffffffffffffffffff16905090565b6000600260009054906101000a900473ffffffffffffffffffffffffffffffffffffffff1673ffffffffffffffffffffffffffffffffffffffff1663f9e97143836000604051602001526040518263ffffffff167c0100000000000000000000000000000000000000000000000000000000028152600401808273ffffffffffffffffffffffffffffffffffffffff1673ffffffffffffffffffffffffffffffffffffffff168152602001915050602060405180830381600087803b151561073d57600080fd5b6102c65a03f1151561074e57600080fd5b505050604051805190509050600073ffffffffffffffffffffffffffffffffffffffff16600160009054906101000a900473ffffffffffffffffffffffffffffffffffffffff1673ffffffffffffffffffffffffffffffffffffffff16141580156107d95750600073ffffffffffffffffffffffffffffffffffffffff168167ffffffffffffffff16145b156108c157600160009054906101000a900473ffffffffffffffffffffffffffffffffffffffff1673ffffffffffffffffffffffffffffffffffffffff1663a9f5df4a836000604051602001526040518263ffffffff167c0100000000000000000000000000000000000000000000000000000000028152600401808273ffffffffffffffffffffffffffffffffffffffff1673ffffffffffffffffffffffffffffffffffffffff168152602001915050602060405180830381600087803b15156108a357600080fd5b6102c65a03f115156108b457600080fd5b5050506040518051905090505b809050919050565b6000809054906101000a900473ffffffffffffffffffffffffffffffffffffffff1673ffffffffffffffffffffffffffffffffffffffff163373ffffffffffffffffffffffffffffffffffffffff1614151561092457600080fd5b806000806101000a81548173ffffffffffffffffffffffffffffffffffffffff021916908373ffffffffffffffffffffffffffffffffffffffff16021790555050565b60008073ffffffffffffffffffffffffffffffffffffffff16600260009054906101000a900473ffffffffffffffffffffffffffffffffffffffff1673ffffffffffffffffffffffffffffffffffffffff161415156109c557600080fd5b6109cd61113e565b604051809103906000f08015156109e357600080fd5b600260006101000a81548173ffffffffffffffffffffffffffffffffffffffff021916908373ffffffffffffffffffffffffffffffffffffffff160217905550600260009054906101000a900473ffffffffffffffffffffffffffffffffffffffff16905090565b6000806000600260009054906101000a900473ffffffffffffffffffffffffffffffffffffffff1673ffffffffffffffffffffffffffffffffffffffff1663f9e97143856000604051602001526040518263ffffffff167c0100000000000000000000000000000000000000000000000000000000028152600401808273ffffffffffffffffffffffffffffffffffffffff1673ffffffffffffffffffffffffffffffffffffffff168152602001915050602060405180830381600087803b1515610b1557600080fd5b6102c65a03f11515610b2657600080fd5b5050506040518051905067ffffffffffffffff161415905080158015610b9b5750600073ffffffffffffffffffffffffffffffffffffffff16600160009054906101000a900473ffffffffffffffffffffffffffffffffffffffff1673ffffffffffffffffffffffffffffffffffffffff1614155b15610c8357600160009054906101000a900473ffffffffffffffffffffffffffffffffffffffff1673ffffffffffffffffffffffffffffffffffffffff1663f6a3d24e846000604051602001526040518263ffffffff167c0100000000000000000000000000000000000000000000000000000000028152600401808273ffffffffffffffffffffffffffffffffffffffff1673ffffffffffffffffffffffffffffffffffffffff168152602001915050602060405180830381600087803b1515610c6557600080fd5b6102c65a03f11515610c7657600080fd5b5050506040518051905090505b80915050919050565b60003073ffffffffffffffffffffffffffffffffffffffff1663f6a3d24e846000604051602001526040518263ffffffff167c0100000000000000000000000000000000000000000000000000000000028152600401808273ffffffffffffffffffffffffffffffffffffffff1673ffffffffffffffffffffffffffffffffffffffff168152602001915050602060405180830381600087803b1515610d3157600080fd5b6102c65a03f11515610d4257600080fd5b50505060405180519050151561113757600073ffffffffffffffffffffffffffffffffffffffff16600260009054906101000a900473ffffffffffffffffffffffffffffffffffffffff1673ffffffffffffffffffffffffffffffffffffffff1663a4ebef30846000604051602001526040518263ffffffff167c0100000000000000000000000000000000000000000000000000000000028152600401808267ffffffffffffffff1667ffffffffffffffff168152602001915050602060405180830381600087803b1515610e1757600080fd5b6102c65a03f11515610e2857600080fd5b5050506040518051905073ffffffffffffffffffffffffffffffffffffffff16141561112a57600260009054906101000a900473ffffffffffffffffffffffffffffffffffffffff1673ffffffffffffffffffffffffffffffffffffffff16639142108d84846000604051602001526040518363ffffffff167c0100000000000000000000000000000000000000000000000000000000028152600401808373ffffffffffffffffffffffffffffffffffffffff1673ffffffffffffffffffffffffffffffffffffffff1681526020018267ffffffffffffffff1667ffffffffffffffff16815260200192505050602060405180830381600087803b1515610f2f57600080fd5b6102c65a03f11515610f4057600080fd5b5050506040518051905050600073ffffffffffffffffffffffffffffffffffffffff16600160009054906101000a900473ffffffffffffffffffffffffffffffffffffffff1673ffffffffffffffffffffffffffffffffffffffff161415156110a557600160009054906101000a900473ffffffffffffffffffffffffffffffffffffffff1673ffffffffffffffffffffffffffffffffffffffff16632b45dd5f84846000604051602001526040518363ffffffff167c0100000000000000000000000000000000000000000000000000000000028152600401808373ffffffffffffffffffffffffffffffffffffffff1673ffffffffffffffffffffffffffffffffffffffff1681526020018267ffffffffffffffff1667ffffffffffffffff16815260200192505050602060405180830381600087803b151561108457600080fd5b6102c65a03f1151561109557600080fd5b5050506040518051905050611125565b7faa278a3404a94f93fef9c6b0a268d5b13f91b5bbe66d408d5f1be3b9bc44d4db8383604051808373ffffffffffffffffffffffffffffffffffffffff1673ffffffffffffffffffffffffffffffffffffffff1681526020018267ffffffffffffffff1667ffffffffffffffff1681526020019250505060405180910390a15b61112f565b600090505b809050611138565b5b92915050565b6040516105988061114f8339019056006060604052341561000f57600080fd5b336000806101000a81548173ffffffffffffffffffffffffffffffffffffffff021916908373ffffffffffffffffffffffffffffffffffffffff16021790555061053a8061005e6000396000f300606060405260043610610062576000357c0100000000000000000000000000000000000000000000000000000000900463ffffffff1680639142108d14610067578063a4ebef30146100db578063bb1c2edc14610148578063f9e9714314610181575b600080fd5b341561007257600080fd5b6100b1600480803573ffffffffffffffffffffffffffffffffffffffff1690602001909190803567ffffffffffffffff169060200190919050506101e2565b604051808267ffffffffffffffff1667ffffffffffffffff16815260200191505060405180910390f35b34156100e657600080fd5b610106600480803567ffffffffffffffff169060200190919050506103c2565b604051808273ffffffffffffffffffffffffffffffffffffffff1673ffffffffffffffffffffffffffffffffffffffff16815260200191505060405180910390f35b341561015357600080fd5b61017f600480803573ffffffffffffffffffffffffffffffffffffffff16906020019091905050610413565b005b341561018c57600080fd5b6101b8600480803573ffffffffffffffffffffffffffffffffffffffff169060200190919050506104b1565b604051808267ffffffffffffffff1667ffffffffffffffff16815260200191505060405180910390f35b60008060009054906101000a900473ffffffffffffffffffffffffffffffffffffffff1673ffffffffffffffffffffffffffffffffffffffff163373ffffffffffffffffffffffffffffffffffffffff1614151561023f57600080fd5b600260008473ffffffffffffffffffffffffffffffffffffffff1673ffffffffffffffffffffffffffffffffffffffff16815260200190815260200160002060009054906101000a900460ff1615151561029857600080fd5b81600160008573ffffffffffffffffffffffffffffffffffffffff1673ffffffffffffffffffffffffffffffffffffffff16815260200190815260200160002060006101000a81548167ffffffffffffffff021916908367ffffffffffffffff16021790555082600360008467ffffffffffffffff1667ffffffffffffffff16815260200190815260200160002060006101000a81548173ffffffffffffffffffffffffffffffffffffffff021916908373ffffffffffffffffffffffffffffffffffffffff1602179055506001600260008573ffffffffffffffffffffffffffffffffffffffff1673ffffffffffffffffffffffffffffffffffffffff16815260200190815260200160002060006101000a81548160ff02191690831515021790555092915050565b6000600360008367ffffffffffffffff1667ffffffffffffffff16815260200190815260200160002060009054906101000a900473ffffffffffffffffffffffffffffffffffffffff169050919050565b6000809054906101000a900473ffffffffffffffffffffffffffffffffffffffff1673ffffffffffffffffffffffffffffffffffffffff163373ffffffffffffffffffffffffffffffffffffffff1614151561046e57600080fd5b806000806101000a81548173ffffffffffffffffffffffffffffffffffffffff021916908373ffffffffffffffffffffffffffffffffffffffff16021790555050565b6000600160008373ffffffffffffffffffffffffffffffffffffffff1673ffffffffffffffffffffffffffffffffffffffff16815260200190815260200160002060009054906101000a900467ffffffffffffffff1690509190505600a165627a7a723058209e45cec8ec7309265deadb7545acb13a036fca9dd56334498e02d6dfbd9ff19e0029a165627a7a72305820c62235fb4482fd1ba702053e4c3eaacd7fc46de2d5f98045c8e6059068e037ee0029",
  "source": "pragma solidity ^0.4.19;\n\n\n/// Owned contract as defined in Solidity documentation\ncontract owned\n{\n    function owned() public { owner = msg.sender; }\n    function delegateOwnership(address newOwner) public onlyOwner { owner = newOwner; } \n    address owner;\n    \n        modifier onlyOwner {\n        require(msg.sender == owner);\n        _;\n    }\n}\n\ncontract EtherTrackNS is owned {\n    /// Fired on entries update\n    event  updateEntries (address owner, uint64 GS1_GLN);\n\n    /// EtherTrackNS parent to forward queries\n    address _parent;\n    address _dataStore;\n\n    ///Fallback function\n    function() public payable {}\n\n    /// Constructor\n    function EtherTrackNS(address parent, address dataStore) public {\n        _parent = parent;\n        _dataStore = dataStore;\n    }\n\n\n    function createDataStore() public returns (address) {\n\trequire(_dataStore == address(0));\n        _dataStore = new EtherTrackDataStore();\n\treturn _dataStore;\n    }\n    \n    function getDataStoreAddress() public view returns(address) { return  _dataStore;}\n    function setDataStoreAddress(address dataStore) public onlyOwner {  _dataStore = dataStore;}\n\n    /// updateRegisters\n    /// Upadtes registry with the provided node/name pair and a the secret for futur hashing\n    function updateRegisters(address node, uint64 GS1_GLN) internal returns(bool registered)\n    {\n        if (!this.exists(node))\n        {\n            /// Name not already used\n            if (EtherTrackDataStore(_dataStore).getNodebyName(GS1_GLN) == address(0))\n            {\n        \t//Update data store\n        \tEtherTrackDataStore(_dataStore).setNamebyNode(node, GS1_GLN);\n\n                if(_parent != address(0))\n                    EtherTrackNS(_parent).registerName(node, GS1_GLN); //Notify parent\n                else\n                    updateEntries(node, GS1_GLN);\n            }\n            else\n            {\n                registered = false;\n            }\n\n            return registered;\n        }\n    }\n\n    /// getNameByNodeAddress\n    /// Returns name corresponding to provided node address\n    function getNameByNodeAddress(address node) external view returns(uint64 _name)\n    {\n        _name = EtherTrackDataStore(_dataStore).getNamebyNode(node);\n        \n        if(_parent != address(0) && _name == address(0))\n            _name = EtherTrackNS(_parent).getNameByNodeAddress(node);\n        \n        return _name;\n    }\n\n    /// getNameByNodeAddress\n    /// Returns name corresponding to provided node address\n    function getNodeAddressByName(uint64 GS1_GLN) external view returns(address _node)\n    {\n        _node = EtherTrackDataStore(_dataStore).getNodebyName(GS1_GLN);\n        \n        if(_parent != address(0) && _node == address(0))\n            _node = EtherTrackNS(_parent).getNodeAddressByName(GS1_GLN);\n        \n        return _node;\n    }\n    \n    /// getNameByNodeAddress\n    /// Returns name corresponding to provided node address\n    function exists(address node) external view returns(bool exists)\n    {\n        bool isRegistered = (EtherTrackDataStore(_dataStore).getNamebyNode(node) != 0);\n        if(!isRegistered && _parent != address(0))\n        {\n            isRegistered = EtherTrackNS(_parent).exists(node);\n        }\n        \n        return isRegistered;\n    }\n    \n    /// registerName\n    /// Registers name and asociate it to caller address\n    function registerName(address node, uint64 GS1_GLN) external payable returns(bool registered)\n    {\n        if(node == address(0))\n            return updateRegisters(msg.sender, GS1_GLN);\n        else\n            return updateRegisters(node, GS1_GLN);\n    }\n    \n    function kill() internal onlyOwner {\n        //Preserver data\n        EtherTrackDataStore(_dataStore).delegateOwnership(owner);\n        selfdestruct(owner);\n    }\n}\n\n\n\n/// Mortal contract as defined in Solidity documentation\ncontract mortal is owned {\n    function kill() internal onlyOwner {\n        selfdestruct(owner);\n    }\n}\n/// Storage contract\ncontract EtherTrackDataStore is owned, mortal {\n    \n    /// Hash table that pair address with public name\n    mapping(address => uint64) private nameByNode;\n    mapping(address => bool) private registeredByNode;\n    mapping(uint64 => address) private nodeByName; \n    \n    function EtherTrackDataStore() public { \n\n    }\n    \n    function getNamebyNode (address node) external view returns (uint64) {\n        return nameByNode[node];\n    }\n    \n    function getNodebyName (uint64 name) external view returns (address) {\n        return nodeByName[name];\n    }\n    \n    function setNamebyNode (address node, uint64 name) external onlyOwner returns (uint64) {\n        require(!registeredByNode[node]);\n        nameByNode[node] = name;\n        nodeByName[name] = node;\n        registeredByNode[node] = true;\n    }\n}\n\n\n",
  "sourcePath": "/home/sunpaz/EtherTrack/Truffle-project/contracts/EtherTrackNS.sol",
  "compiler": {
    "name": "solc",
    "version": "0.4.19+commit.c4cbbb05.Emscripten.clang"
  },
  "schemaVersion": "2.0.0",
  "updatedAt": "2018-03-29T17:49:56.249Z"
}