{
  "contractName": "EtherTrackDataStore",
  "abi": [
    {
      "constant": false,
      "inputs": [
        {
          "name": "newOwner",
          "type": "address"
        }
      ],
      "name": "delegateOwnership",
      "outputs": [],
      "payable": false,
      "stateMutability": "nonpayable",
      "type": "function"
    },
    {
      "inputs": [],
      "payable": false,
      "stateMutability": "nonpayable",
      "type": "constructor"
    },
    {
      "constant": true,
      "inputs": [
        {
          "name": "node",
          "type": "address"
        }
      ],
      "name": "getNamebyNode",
      "outputs": [
        {
          "name": "",
          "type": "uint64"
        }
      ],
      "payable": false,
      "stateMutability": "view",
      "type": "function"
    },
    {
      "constant": true,
      "inputs": [
        {
          "name": "name",
          "type": "uint64"
        }
      ],
      "name": "getNodebyName",
      "outputs": [
        {
          "name": "",
          "type": "address"
        }
      ],
      "payable": false,
      "stateMutability": "view",
      "type": "function"
    },
    {
      "constant": false,
      "inputs": [
        {
          "name": "node",
          "type": "address"
        },
        {
          "name": "name",
          "type": "uint64"
        }
      ],
      "name": "setNamebyNode",
      "outputs": [
        {
          "name": "",
          "type": "uint64"
        }
      ],
      "payable": false,
      "stateMutability": "nonpayable",
      "type": "function"
    }
  ],
  "bytecode": "0x6060604052341561000f57600080fd5b336000806101000a81548173ffffffffffffffffffffffffffffffffffffffff021916908373ffffffffffffffffffffffffffffffffffffffff16021790555061053a8061005e6000396000f300606060405260043610610062576000357c0100000000000000000000000000000000000000000000000000000000900463ffffffff1680639142108d14610067578063a4ebef30146100db578063bb1c2edc14610148578063f9e9714314610181575b600080fd5b341561007257600080fd5b6100b1600480803573ffffffffffffffffffffffffffffffffffffffff1690602001909190803567ffffffffffffffff169060200190919050506101e2565b604051808267ffffffffffffffff1667ffffffffffffffff16815260200191505060405180910390f35b34156100e657600080fd5b610106600480803567ffffffffffffffff169060200190919050506103c2565b604051808273ffffffffffffffffffffffffffffffffffffffff1673ffffffffffffffffffffffffffffffffffffffff16815260200191505060405180910390f35b341561015357600080fd5b61017f600480803573ffffffffffffffffffffffffffffffffffffffff16906020019091905050610413565b005b341561018c57600080fd5b6101b8600480803573ffffffffffffffffffffffffffffffffffffffff169060200190919050506104b1565b604051808267ffffffffffffffff1667ffffffffffffffff16815260200191505060405180910390f35b60008060009054906101000a900473ffffffffffffffffffffffffffffffffffffffff1673ffffffffffffffffffffffffffffffffffffffff163373ffffffffffffffffffffffffffffffffffffffff1614151561023f57600080fd5b600260008473ffffffffffffffffffffffffffffffffffffffff1673ffffffffffffffffffffffffffffffffffffffff16815260200190815260200160002060009054906101000a900460ff1615151561029857600080fd5b81600160008573ffffffffffffffffffffffffffffffffffffffff1673ffffffffffffffffffffffffffffffffffffffff16815260200190815260200160002060006101000a81548167ffffffffffffffff021916908367ffffffffffffffff16021790555082600360008467ffffffffffffffff1667ffffffffffffffff16815260200190815260200160002060006101000a81548173ffffffffffffffffffffffffffffffffffffffff021916908373ffffffffffffffffffffffffffffffffffffffff1602179055506001600260008573ffffffffffffffffffffffffffffffffffffffff1673ffffffffffffffffffffffffffffffffffffffff16815260200190815260200160002060006101000a81548160ff02191690831515021790555092915050565b6000600360008367ffffffffffffffff1667ffffffffffffffff16815260200190815260200160002060009054906101000a900473ffffffffffffffffffffffffffffffffffffffff169050919050565b6000809054906101000a900473ffffffffffffffffffffffffffffffffffffffff1673ffffffffffffffffffffffffffffffffffffffff163373ffffffffffffffffffffffffffffffffffffffff1614151561046e57600080fd5b806000806101000a81548173ffffffffffffffffffffffffffffffffffffffff021916908373ffffffffffffffffffffffffffffffffffffffff16021790555050565b6000600160008373ffffffffffffffffffffffffffffffffffffffff1673ffffffffffffffffffffffffffffffffffffffff16815260200190815260200160002060009054906101000a900467ffffffffffffffff1690509190505600a165627a7a72305820dad4a228d8b0c31c6ea7d5758a5ec6e29539305943491c1920babecb2a970f380029",
  "source": "pragma solidity ^0.4.19;\n\n\n/// Owned contract as defined in Solidity documentation\ncontract owned\n{\n    function owned() public { owner = msg.sender; }\n    function delegateOwnership(address newOwner) public onlyOwner { owner = newOwner; } \n    address owner;\n    \n        modifier onlyOwner {\n        require(msg.sender == owner);\n        _;\n    }\n}\n\ncontract EtherTrackNS is owned {\n    /// Fired on entries update\n    event  updateEntries (address owner, uint64 GS1_GLN);\n\n    /// EtherTrackNS parent to forward queries\n    address _parent;\n    address _dataStore;\n\n    ///Fallback function\n    function() public payable {}\n\n    /// Constructor\n    function EtherTrackNS(address parent, address dataStore) public {\n        _parent = parent;\n        _dataStore = dataStore;\n    }\n\n\n    function createDataStore() public returns (address) {\n\trequire(_dataStore == address(0));\n        _dataStore = new EtherTrackDataStore();\n\treturn _dataStore;\n    }\n    \n    function getDataStoreAddress() public view returns(address) { return  _dataStore;}\n    function setDataStoreAddress(address dataStore) public onlyOwner {  _dataStore = dataStore;}\n\n    /// updateRegisters\n    /// Upadtes registry with the provided node/name pair and a the secret for futur hashing\n    function updateRegisters(address node, uint64 GS1_GLN) internal returns(bool registered)\n    {\n        if (!this.exists(node))\n        {\n            /// Name not already used\n            if (EtherTrackDataStore(_dataStore).getNodebyName(GS1_GLN) == address(0))\n            {\n        \t//Update data store\n        \tEtherTrackDataStore(_dataStore).setNamebyNode(node, GS1_GLN);\n\n                if(_parent != address(0))\n                    EtherTrackNS(_parent).registerName(node, GS1_GLN); //Notify parent\n                else\n                    updateEntries(node, GS1_GLN);\n            }\n            else\n            {\n                registered = false;\n            }\n\n            return registered;\n        }\n    }\n\n    /// getNameByNodeAddress\n    /// Returns name corresponding to provided node address\n    function getNameByNodeAddress(address node) external view returns(uint64 _name)\n    {\n        _name = EtherTrackDataStore(_dataStore).getNamebyNode(node);\n        \n        if(_parent != address(0) && _name == address(0))\n            _name = EtherTrackNS(_parent).getNameByNodeAddress(node);\n        \n        return _name;\n    }\n    \n    /// getNameByNodeAddress\n    /// Returns name corresponding to provided node address\n    function exists(address node) external view returns(bool exists)\n    {\n        bool isRegistered = (EtherTrackDataStore(_dataStore).getNamebyNode(node) != 0);\n        if(!isRegistered && _parent != address(0))\n        {\n            isRegistered = EtherTrackNS(_parent).exists(node);\n        }\n        \n        return isRegistered;\n    }\n    \n    /// registerName\n    /// Registers name and asociate it to caller address\n    function registerName(address node, uint64 GS1_GLN) external payable returns(bool registered)\n    {\n        if(node == address(0))\n            return updateRegisters(msg.sender, GS1_GLN);\n        else\n            return updateRegisters(node, GS1_GLN);\n    }\n    \n    function kill() internal onlyOwner {\n        //Preserver data\n        EtherTrackDataStore(_dataStore).delegateOwnership(owner);\n        selfdestruct(owner);\n    }\n}\n\n\n\n/// Mortal contract as defined in Solidity documentation\ncontract mortal is owned {\n    function kill() internal onlyOwner {\n        selfdestruct(owner);\n    }\n}\n/// Storage contract\ncontract EtherTrackDataStore is owned, mortal {\n    \n    /// Hash table that pair address with public name\n    mapping(address => uint64) private nameByNode;\n    mapping(address => bool) private registeredByNode;\n    mapping(uint64 => address) private nodeByName; \n    \n    function EtherTrackDataStore() public { \n\n    }\n    \n    function getNamebyNode (address node) external view returns (uint64) {\n        return nameByNode[node];\n    }\n    \n    function getNodebyName (uint64 name) external view returns (address) {\n        return nodeByName[name];\n    }\n    \n    function setNamebyNode (address node, uint64 name) external onlyOwner returns (uint64) {\n        require(!registeredByNode[node]);\n        nameByNode[node] = name;\n        nodeByName[name] = node;\n        registeredByNode[node] = true;\n    }\n}\n\n\n",
  "sourcePath": "/home/sunpaz/Truffle/contracts/EtherTrackNS.sol",
  "compiler": {
    "name": "solc",
    "version": "0.4.19+commit.c4cbbb05.Emscripten.clang"
  },
  "schemaVersion": "2.0.0",
  "updatedAt": "2018-03-13T13:44:53.103Z"
}