{
  "contractName": "mortal",
  "abi": [
    {
      "constant": false,
      "inputs": [
        {
          "name": "newOwner",
          "type": "address"
        }
      ],
      "name": "delegateOwnership",
      "outputs": [],
      "payable": false,
      "stateMutability": "nonpayable",
      "type": "function"
    }
  ],
  "bytecode": "0x6060604052336000806101000a81548173ffffffffffffffffffffffffffffffffffffffff021916908373ffffffffffffffffffffffffffffffffffffffff160217905550610149806100536000396000f300606060405260043610610041576000357c0100000000000000000000000000000000000000000000000000000000900463ffffffff168063bb1c2edc14610046575b600080fd5b341561005157600080fd5b61007d600480803573ffffffffffffffffffffffffffffffffffffffff1690602001909190505061007f565b005b6000809054906101000a900473ffffffffffffffffffffffffffffffffffffffff1673ffffffffffffffffffffffffffffffffffffffff163373ffffffffffffffffffffffffffffffffffffffff161415156100da57600080fd5b806000806101000a81548173ffffffffffffffffffffffffffffffffffffffff021916908373ffffffffffffffffffffffffffffffffffffffff160217905550505600a165627a7a723058204beaf3be641faed918a19e2bc8a052e894448a3791f488f780c7e501e4c486ff0029",
  "source": "pragma solidity ^0.4.19;\n\n/// Owned contract as defined in Solidity documentation\ncontract owned\n{\n    function owned() public { owner = msg.sender; }\n    function delegateOwnership(address newOwner) public onlyOwner { owner = newOwner; } \n    address owner;\n    \n        modifier onlyOwner {\n        require(msg.sender == owner);\n        _;\n    }\n}\n\ncontract EtherTrackNS is owned {\n    /// Fired on entries update\n    event updateEntries (address owner, uint64 GS1_GLN);\n\n    /// EtherTrackNS parent to forward queries\n    address _parent;\n    address _dataStore;\n\n    ///Fallback function\n    function() public payable {}\n\n    /// Constructor\n    function EtherTrackNS(address parent, address dataStore) public {\n        _parent = parent;\n        _dataStore = dataStore;\n    }\n\n    function createDataStore() public returns (address) {\n\trequire(_dataStore == address(0));\n        _dataStore = new EtherTrackDataStore();\n\treturn _dataStore;\n    }\n\n    // Datastore\n    function getDataStoreAddress() public view returns(address) { return  _dataStore;}\n    function setDataStoreAddress(address dataStore) public onlyOwner {  _dataStore = dataStore;}\n\n    // NS Parent\n    function getParentAddress() public view returns(address) { return  _parent;}\n    function setParentAddress(address parent) public onlyOwner {  _parent = parent;}\n\n    /// updateRegisters\n    /// Upadtes registry with the provided node/name pair and a the secret for futur hashing\n    function updateRegisters(address node, uint64 GS1_GLN) internal\n    {\n\trequire(_dataStore != address(0));\n        require(!this.exists(node));\n\trequire((EtherTrackDataStore(_dataStore).getNodebyName(GS1_GLN) == address(0)));\n\n\t//Update data store\n\tEtherTrackDataStore(_dataStore).setNamebyNode(node, GS1_GLN);\n\n\tif(_parent != address(0))\n\t    EtherTrackNS(_parent).registerName(node, GS1_GLN); //Notify parent\n\n\tupdateEntries(node, GS1_GLN);        \n    }\n\n    /// getNameByNodeAddress\n    /// Returns name corresponding to provided node address\n    function getNameByNodeAddress(address node) external view returns(uint64 _name)\n    {\n\trequire(_dataStore != address(0));\n        _name = EtherTrackDataStore(_dataStore).getNamebyNode(node);\n        \n        if(_parent != address(0) && _name == 0)\n            _name = EtherTrackNS(_parent).getNameByNodeAddress(node);\n        \n        return _name;\n    }\n\n    /// getNameByNodeAddress\n    /// Returns name corresponding to provided node address\n    function getNodeAddressByName(uint64 GS1_GLN) external view returns(address _node)\n    {\n        _node = EtherTrackDataStore(_dataStore).getNodebyName(GS1_GLN);\n        \n        if(_parent != address(0) && _node == address(0))\n            _node = EtherTrackNS(_parent).getNodeAddressByName(GS1_GLN);\n        \n        return _node;\n    }\n    \n    /// getNameByNodeAddress\n    /// Returns name corresponding to provided node address\n    function exists(address node) external view returns(bool exists)\n    {\n\trequire(_dataStore != address(0));\n\n        bool isRegistered = (EtherTrackDataStore(_dataStore).getNamebyNode(node) != 0);\n\n        if(!isRegistered && _parent != address(0))\n        {\n            isRegistered = EtherTrackNS(_parent).exists(node);\n        }\n        \n        return isRegistered;\n    }\n    \n    /// registerName\n    /// Registers name and asociate it to caller address\n    function registerName(address node, uint64 GS1_GLN) external payable\n    {\n            updateRegisters(node, GS1_GLN);\n    }\n    \n    function kill() internal onlyOwner {\n        //Preserver data\n        EtherTrackDataStore(_dataStore).delegateOwnership(owner);\n        selfdestruct(owner);\n    }\n}\n\n/// Mortal contract as defined in Solidity documentation\ncontract mortal is owned {\n    function kill() internal onlyOwner {\n        selfdestruct(owner);\n    }\n}\n\n/// Storage contract\ncontract EtherTrackDataStore is owned, mortal {\n    \n    /// Hash table that pair address with public name\n    mapping(address => uint64) private nameByNode;\n    mapping(address => bool) private registeredByNode;\n    mapping(uint64 => address) private nodeByName; \n    \n    function EtherTrackDataStore() public { \n\n    }\n    \n    function getNamebyNode (address node) external view returns (uint64) {\n        return nameByNode[node];\n    }\n    \n    function getNodebyName (uint64 name) external view returns (address) {\n        return nodeByName[name];\n    }\n    \n    function setNamebyNode (address node, uint64 name) external onlyOwner returns (uint64) {\n        require(!registeredByNode[node]);\n        nameByNode[node] = name;\n        nodeByName[name] = node;\n        registeredByNode[node] = true;\n    }\n}\n",
  "sourcePath": "/home/sunpaz/EtherTrack/Truffle-project/contracts/EtherTrackNS.sol",
  "compiler": {
    "name": "solc",
    "version": "0.4.19+commit.c4cbbb05.Emscripten.clang"
  },
  "schemaVersion": "2.0.0",
  "updatedAt": "2018-04-02T19:39:41.223Z"
}