{
  "contractName": "EtherTrackUnit",
  "abi": [
    {
      "inputs": [
        {
          "name": "gtin",
          "type": "string"
        },
        {
          "name": "sscc",
          "type": "string"
        },
        {
          "name": "gsin",
          "type": "string"
        },
        {
          "name": "sn",
          "type": "string"
        },
        {
          "name": "etherTrackNS",
          "type": "address"
        }
      ],
      "payable": false,
      "stateMutability": "nonpayable",
      "type": "constructor"
    },
    {
      "payable": true,
      "stateMutability": "payable",
      "type": "fallback"
    },
    {
      "anonymous": false,
      "inputs": [
        {
          "indexed": false,
          "name": "owner",
          "type": "address"
        },
        {
          "indexed": false,
          "name": "gtin",
          "type": "string"
        },
        {
          "indexed": false,
          "name": "sn",
          "type": "string"
        }
      ],
      "name": "notifyCreation",
      "type": "event"
    },
    {
      "anonymous": false,
      "inputs": [
        {
          "indexed": false,
          "name": "to",
          "type": "address"
        },
        {
          "indexed": false,
          "name": "gtin",
          "type": "string"
        },
        {
          "indexed": false,
          "name": "sn",
          "type": "string"
        }
      ],
      "name": "notifyOwnershipTransfer",
      "type": "event"
    },
    {
      "anonymous": false,
      "inputs": [
        {
          "indexed": false,
          "name": "eventDesc",
          "type": "string"
        },
        {
          "indexed": false,
          "name": "gtin",
          "type": "string"
        },
        {
          "indexed": false,
          "name": "sn",
          "type": "string"
        }
      ],
      "name": "notifyEventOccured",
      "type": "event"
    },
    {
      "anonymous": false,
      "inputs": [
        {
          "indexed": false,
          "name": "newLocation",
          "type": "address"
        },
        {
          "indexed": false,
          "name": "gtin",
          "type": "string"
        },
        {
          "indexed": false,
          "name": "sn",
          "type": "string"
        }
      ],
      "name": "notifyLocationChanged",
      "type": "event"
    },
    {
      "constant": false,
      "inputs": [
        {
          "name": "to",
          "type": "address"
        }
      ],
      "name": "transferOwnerShip",
      "outputs": [],
      "payable": true,
      "stateMutability": "payable",
      "type": "function"
    },
    {
      "constant": false,
      "inputs": [
        {
          "name": "to",
          "type": "address"
        }
      ],
      "name": "moveTo",
      "outputs": [],
      "payable": true,
      "stateMutability": "payable",
      "type": "function"
    },
    {
      "constant": false,
      "inputs": [
        {
          "name": "eventDesc",
          "type": "string"
        }
      ],
      "name": "addEvent",
      "outputs": [],
      "payable": true,
      "stateMutability": "payable",
      "type": "function"
    },
    {
      "constant": false,
      "inputs": [
        {
          "name": "newEtherTrackNS",
          "type": "address"
        }
      ],
      "name": "changeEtherTrackNS",
      "outputs": [],
      "payable": true,
      "stateMutability": "payable",
      "type": "function"
    }
  ],
  "bytecode": "0x606060405234156200001057600080fd5b604051620010323803806200103283398101604052808051820191906020018051820191906020018051820191906020018051820191906020018051906020019091905050336000806101000a81548173ffffffffffffffffffffffffffffffffffffffff021916908373ffffffffffffffffffffffffffffffffffffffff16021790555080600760006101000a81548173ffffffffffffffffffffffffffffffffffffffff021916908373ffffffffffffffffffffffffffffffffffffffff16021790555060011515620000fa8684620003fb6401000000000262000a24176401000000009004565b15151415156200010957600080fd5b600073ffffffffffffffffffffffffffffffffffffffff168173ffffffffffffffffffffffffffffffffffffffff16141515156200014657600080fd5b600115156200018a6000809054906101000a900473ffffffffffffffffffffffffffffffffffffffff166200041a640100000000026200093b176401000000009004565b15151415156200019957600080fd5b8460016000019080519060200190620001b492919062000505565b5082600180019080519060200190620001cf92919062000505565b508360016002019080519060200190620001eb92919062000505565b5081600160030190805190602001906200020792919062000505565b506000809054906101000a900473ffffffffffffffffffffffffffffffffffffffff16600660006101000a81548173ffffffffffffffffffffffffffffffffffffffff021916908373ffffffffffffffffffffffffffffffffffffffff1602179055507f3b635949b99a493634dbc37122b4ed36073299e9ef6bbeda3def7fb0a9729b006000809054906101000a900473ffffffffffffffffffffffffffffffffffffffff16866001600301604051808473ffffffffffffffffffffffffffffffffffffffff1673ffffffffffffffffffffffffffffffffffffffff1681526020018060200180602001838103835285818151815260200191508051906020019080838360005b838110156200032b5780820151818401526020810190506200030e565b50505050905090810190601f168015620003595780820380516001836020036101000a031916815260200191505b50838103825284818154600181600116156101000203166002900481526020019150805460018160011615610100020316600290048015620003df5780601f10620003b357610100808354040283529160200191620003df565b820191906000526020600020905b815481529060010190602001808311620003c157829003601f168201915b50509550505050505060405180910390a15050505050620005b4565b6000600e8351111580156200041257506014825111155b905092915050565b6000600760009054906101000a900473ffffffffffffffffffffffffffffffffffffffff1673ffffffffffffffffffffffffffffffffffffffff1663f6a3d24e836000604051602001526040518263ffffffff167c0100000000000000000000000000000000000000000000000000000000028152600401808273ffffffffffffffffffffffffffffffffffffffff1673ffffffffffffffffffffffffffffffffffffffff168152602001915050602060405180830381600087803b1515620004e257600080fd5b6102c65a03f11515620004f457600080fd5b505050604051805190509050919050565b828054600181600116156101000203166002900490600052602060002090601f016020900481019282601f106200054857805160ff191683800117855562000579565b8280016001018555821562000579579182015b82811115620005785782518255916020019190600101906200055b565b5b5090506200058891906200058c565b5090565b620005b191905b80821115620005ad57600081600090555060010162000593565b5090565b90565b610a6e80620005c46000396000f300606060405260043610610062576000357c0100000000000000000000000000000000000000000000000000000000900463ffffffff1680638863dd1a146100645780639146a3f514610092578063bd923581146100c0578063feaa3394146100ee575b005b610090600480803573ffffffffffffffffffffffffffffffffffffffff16906020019091905050610111565b005b6100be600480803573ffffffffffffffffffffffffffffffffffffffff1690602001909190505061036a565b005b6100ec600480803573ffffffffffffffffffffffffffffffffffffffff169060200190919050506104fa565b005b61010f60048080359060200190820180359060200191909192905050610733565b005b6000809054906101000a900473ffffffffffffffffffffffffffffffffffffffff1673ffffffffffffffffffffffffffffffffffffffff163373ffffffffffffffffffffffffffffffffffffffff1614151561016c57600080fd5b600115156101798261093b565b151514151561018757600080fd5b806000806101000a81548173ffffffffffffffffffffffffffffffffffffffff021916908373ffffffffffffffffffffffffffffffffffffffff1602179055507fcbbd9328e4e21e0c02a5c1bbcc0808556de75da5464606c19a899a78e11507496000809054906101000a900473ffffffffffffffffffffffffffffffffffffffff1660016000016001600301604051808473ffffffffffffffffffffffffffffffffffffffff1673ffffffffffffffffffffffffffffffffffffffff16815260200180602001806020018381038352858181546001816001161561010002031660029004815260200191508054600181600116156101000203166002900480156102d35780601f106102a8576101008083540402835291602001916102d3565b820191906000526020600020905b8154815290600101906020018083116102b657829003601f168201915b50508381038252848181546001816001161561010002031660029004815260200191508054600181600116156101000203166002900480156103565780601f1061032b57610100808354040283529160200191610356565b820191906000526020600020905b81548152906001019060200180831161033957829003601f168201915b50509550505050505060405180910390a150565b6000809054906101000a900473ffffffffffffffffffffffffffffffffffffffff1673ffffffffffffffffffffffffffffffffffffffff163373ffffffffffffffffffffffffffffffffffffffff161415156103c557600080fd5b600115158173ffffffffffffffffffffffffffffffffffffffff1663f6a3d24e6000809054906101000a900473ffffffffffffffffffffffffffffffffffffffff166000604051602001526040518263ffffffff167c0100000000000000000000000000000000000000000000000000000000028152600401808273ffffffffffffffffffffffffffffffffffffffff1673ffffffffffffffffffffffffffffffffffffffff168152602001915050602060405180830381600087803b151561048d57600080fd5b6102c65a03f1151561049e57600080fd5b5050506040518051905015151415156104b657600080fd5b80600760006101000a81548173ffffffffffffffffffffffffffffffffffffffff021916908373ffffffffffffffffffffffffffffffffffffffff16021790555050565b6000809054906101000a900473ffffffffffffffffffffffffffffffffffffffff1673ffffffffffffffffffffffffffffffffffffffff163373ffffffffffffffffffffffffffffffffffffffff1614151561055557600080fd5b600115156105628261093b565b151514151561057057600080fd5b80600660006101000a81548173ffffffffffffffffffffffffffffffffffffffff021916908373ffffffffffffffffffffffffffffffffffffffff1602179055507fdd7b68e35b655777fab37de9195cf0020243bc25315eb8ce40f6c21c76bb48ab8160016000016001600301604051808473ffffffffffffffffffffffffffffffffffffffff1673ffffffffffffffffffffffffffffffffffffffff168152602001806020018060200183810383528581815460018160011615610100020316600290048152602001915080546001816001161561010002031660029004801561069c5780601f106106715761010080835404028352916020019161069c565b820191906000526020600020905b81548152906001019060200180831161067f57829003601f168201915b505083810382528481815460018160011615610100020316600290048152602001915080546001816001161561010002031660029004801561071f5780601f106106f45761010080835404028352916020019161071f565b820191906000526020600020905b81548152906001019060200180831161070257829003601f168201915b50509550505050505060405180910390a150565b6000809054906101000a900473ffffffffffffffffffffffffffffffffffffffff1673ffffffffffffffffffffffffffffffffffffffff163373ffffffffffffffffffffffffffffffffffffffff1614151561078e57600080fd5b600115156107bc6000809054906101000a900473ffffffffffffffffffffffffffffffffffffffff1661093b565b15151415156107ca57600080fd5b7f233c9c999f9a33de348c1d835b631a852f981bde30bd11fd00580051efb28278600160000160016003018484604051808060200180602001806020018481038452888181546001816001161561010002031660029004815260200191508054600181600116156101000203166002900480156108885780601f1061085d57610100808354040283529160200191610888565b820191906000526020600020905b81548152906001019060200180831161086b57829003601f168201915b505084810383528781815460018160011615610100020316600290048152602001915080546001816001161561010002031660029004801561090b5780601f106108e05761010080835404028352916020019161090b565b820191906000526020600020905b8154815290600101906020018083116108ee57829003601f168201915b50508481038252868682818152602001925080828437820191505097505050505050505060405180910390a15050565b6000600760009054906101000a900473ffffffffffffffffffffffffffffffffffffffff1673ffffffffffffffffffffffffffffffffffffffff1663f6a3d24e836000604051602001526040518263ffffffff167c0100000000000000000000000000000000000000000000000000000000028152600401808273ffffffffffffffffffffffffffffffffffffffff1673ffffffffffffffffffffffffffffffffffffffff168152602001915050602060405180830381600087803b1515610a0257600080fd5b6102c65a03f11515610a1357600080fd5b505050604051805190509050919050565b6000600e835111158015610a3a57506014825111155b9050929150505600a165627a7a723058201dd4e56bee71bfac9c64724ecfcfd1dd1ae3e02bc7fbc86b3bac22163f4820fa0029",
  "source": "pragma solidity ^0.4.19;\n\n/// Owned contract as defined in Solidity documentation\ncontract owned\n{\n    function owned() public { owner = msg.sender; }\n    address owner;\n    \n        modifier onlyOwner {\n        require(msg.sender == owner);\n        _;\n    }\n}\n\n/// Mortal contract as defined in Solidity documentation\ncontract mortal is owned {\n    function kill() internal onlyOwner {\n        selfdestruct(owner);\n    }\n}\n\n// Interface\ncontract EtherTrackNS is owned {\n    /// updateRegisters\n    /// Upadtes registry with the provided node/name pair and a the secret for futur hashing\n    function updateRegisters(address node, uint64 GS1_GLN) internal returns(bool registered);\n\n    /// getNameByNodeAddress\n    /// Returns name corresponding to provided node address\n    function getNameByNodeAddress(address node) external view returns(uint64 _name);\n\n   /// getNodeAddressByName\n   /// Returns node address corresponding to provided name\n   function getNodeAddressByName(uint64 GS1_GLN) external view returns(address _node);\n    \n    /// getNameByNodeAddress\n    /// Returns name corresponding to provided node address\n    function exists(address node) external view returns(bool exists);\n    \n    /// registerName\n    /// Registers name and asociate it to caller address\n    function registerName(address node, uint64 GS1_GLN) external payable returns(bool registered);\n\n    /// delegate\n    /// Delegate name to specified address\n    function delegate (address to) external payable;\n}\n\n/// Example for constructor : \"7804652870003\", \"12345678901234567890\", \"118292\", \"SN0123456789456123457\", \"123YY�17\", \"0xdc04977a2078c8ffdf086d618d1f961b6c546222\"\ncontract EtherTrackUnit is owned, mortal {\n    /*\n    * According to GS1 standards, the GTIN/SN pair should be unique\n    *\n    */\n    /// Fallback function\n    function() public payable { }\n    \n    struct UnitInfo {\n        string GS1_GTIN; /// Global Trade Item Number (GTIN) AI01\n        string GS1_GSIN; /// Global Shipment Identification Number (GSIN) \n        string GS1_SSC; /// Serial Shipping Container Code (SSCC)\n        string GS1_SN; /// Serial Number (SN) AI21\n        bytes32 GS1_hashedData;\n    }\n    \n    UnitInfo _info; /// Store unit information\n    address _location; /// Store unit location\n    address _etherTrackNS; /// Store naming service contract reference\n    \n    /// Fired on tracebility unit creation\n    event notifyCreation(address owner, string gtin, string sn);\n    event notifyOwnershipTransfer(address to, string gtin, string sn);\n    event notifyEventOccured(string eventDesc, string gtin, string sn);\n    event notifyLocationChanged(address newLocation, string gtin, string sn);\n    \n    /// Create a new traceability unit and validate its owner throught EtherTrackNS\n    function EtherTrackUnit (string gtin, string sscc, string gsin, string sn, address etherTrackNS) public {\n        _etherTrackNS = etherTrackNS;\n\n        //Validate that owner is registred on the naming service and that GS1 AI are well formed\n        require(validateGS1Constraints(gtin, sn) == true);\n        require(etherTrackNS != address(0));\n        require(validateNode(owner) == true);\n        //require((bytes(secret).length <= 32 ) == true);\n\n        _info.GS1_GTIN = gtin;\n        _info.GS1_GSIN = gsin;\n        _info.GS1_SSC = sscc;\n        _info.GS1_SN = sn;\n        //Set location to owner\n        _location = owner;\n        \n        \n        notifyCreation(owner, gtin, _info.GS1_SN);\n    }\n    \n    /// Publicly exposed constraints\n    function validateGS1Constraints(string gtin, string sn) internal pure returns (bool) {\n        return (bytes(gtin).length <= 14 && bytes(sn).length <= 20); \n    }\n    \n    /// Transfer unit ownership to specified node\n    function transferOwnerShip(address to) external payable onlyOwner {\n        require(validateNode(to) == true);\n        owner = to;\n        notifyOwnershipTransfer(owner, _info.GS1_GTIN, _info.GS1_SN);\n    }\n    \n    /// Change unit location to specified node\n    function moveTo(address to) external payable onlyOwner {\n        require(validateNode(to) == true);\n        _location = to;\n        \n        notifyLocationChanged(to, _info.GS1_GTIN, _info.GS1_SN);\n    }\n    \n        /// Change unit location to specified node\n    function addEvent(string eventDesc) external payable onlyOwner {\n        require(validateNode(owner) == true);\n        notifyEventOccured(_info.GS1_GTIN, _info.GS1_SN, eventDesc);\n    }\n    \n    function changeEtherTrackNS(address newEtherTrackNS) external payable onlyOwner {\n        // Send exists on new ethertrackNS\n        require(EtherTrackNS(newEtherTrackNS).exists(owner) == true);\n        _etherTrackNS = newEtherTrackNS;\n    }\n    \n    /// Validate that provided node exists\n    function validateNode(address node) view internal returns (bool) { return EtherTrackNS(_etherTrackNS).exists(node); }\n}\n",
  "sourcePath": "/home/sunpaz/EtherTrack/Truffle-project/contracts/EtherTrackUnit.sol",
  "compiler": {
    "name": "solc",
    "version": "0.4.19+commit.c4cbbb05.Emscripten.clang"
  },
  "schemaVersion": "2.0.0",
  "updatedAt": "2018-03-27T21:52:10.087Z"
}